:06000000020011020808D5
:03000B000207D712
:0C006A00750F0075220075230002000EC7
:03000E00020308E2
:2000760085822485832585F026F527758230120CF8758278120CF87B00BB0800505374073D
:20009600C39B25E025E0FA8AF005F0A824A925AA26AF27800DC3EF13FFEA13FAE913F9E814
:2000B60013F8D5F0F0740F58FF24F640108F0674302EF582C003120CF8D0038011EF24F602
:2000D600500C74372FF582C003120CF8D0030B80A875820A020CF8758200120ABAE582F54E
:2000F60008758201120ABAE582F509758202120ABAE582F50A758203120ABAE582F50B75CE
:200116008204120ABAE582F50C758205120ABAE582F50D758206120ABAE582F50E8508827E
:20013600120B06E582F508850982120B06E582F509850A82120B06E582F50A850B82120BC1
:2001560006E582F50B850C82120B06E582F50C850D82120B06E582F50D850E82120B06E5C1
:2001760082F50E7401B50B03750B0822850882120B2BE582F508850982120B2BE582F5098A
:20019600850A82120B2BE582F50A850B82120B2BE582F50B850C82120B2BE582F50C850D74
:2001B60082120B2BE582F50D850E82120B2BE582F50E850828758200120AE98509287582D1
:2001D60001120AE9850A28758202120AE9850B28758203120AE9850C28758204120AE98559
:2001F6000D28758205120AE9850E28758206020AE9AE82AF839016D175F080C007C00612A9
:200216000D08D006D007C3EE940AEF64809480500E758230C007C006120CF8D006D007EF0C
:200236003395E0FD8E828F838DF0020D59AC0A7D007E007F008C828D838EF0EF120D59AE1B
:20025600097F008E828F83120207AE087F008E828F831202079016D375F080120D08AC0B15
:200276007D007E007F008C828D838EF0EF120D599016D375F080120D08AC0C7D007E007F34
:20029600008C828D838EF0EF120D599016D375F080120D08AC0D7D007E007F008C828D836F
:2002B6008EF0EF120D599016D375F080120D08AC0E7D007E007F008C828D838EF0EF120DE0
:2002D600599016D575F080020D4D43AC0153ADFE43B00143880143A8015389F0438901754B
:2002F6008ABF758CE0438E0843A80243A88043881022120CD0120C10120AAE1202E0750839
:2003160001750922750A14750B03750C1F750D05750E161200EDE508FFB50F030205458FC3
:200336000F752B01752C05758233120C70752B02752C09758233120C70752B03752C0975D3
:200356008233120C70752B04752C01758233120C70752B05752CF3758233120C70752B06AF
:20037600752C00758233120C70752B07752CF3758233120C70752B08752C01758233120C89
:2003960070AE0E7F0075770A8F788E828F8312163AAE828E2C752B01758223120C70AE0E2C
:2003B6007F0075770A8F788E828F83121670AE828E2C752B02758223120C70AE0D7F00750E
:2003D600770A8F788E828F8312163AAE8274F04EF52C752B03758223120C70AE0D7F0075FE
:2003F600770A8F788E828F83121670AE828E2C752B04758223120C70AE0C7F0075770A8FB1
:20041600788E828F8312163AAE8274F04EF52C752B05758223120C70AE0C7F0075770A8FBC
:20043600788E828F83121670AE828E2C752B06758223120C70752B07752C0F758223120CAD
:2004560070850B2C752B08758223120C70AE087F0075770A8F788E828F8312163AAE828E96
:200476002C752B01758213120C70AE087F0075770A8F788E828F83121670AE828E2C752B8B
:2004960002758213120C70E50F30E0067E0A7F0080047E0F7F008E2C752B03758213120C86
:2004B60070AE097F0075770A8F788E828F8312163AAE828E2C752B04758213120C70AE0922
:2004D6007F0075770A8F788E828F83121670AE828E2C752B05758213120C70E50F30E0069F
:2004F6007E0A7F0080047E0F7F008E2C752B06758213120C70AE0A7F0075770A8F788E8213
:200516008F8312163AAE828E2C752B07758213120C70AE0A7F0075770A8F788E828F8312C0
:200536001670AE828E2C752B08758213120C707401B522028003020329851E82851F838525
:2005560020F0E521120076752200746FB51E0FF4B51F0B74FFB52006B5210302075374675A
:20057600B51E0FF4B51F0B74FFB52006B5210302073B745DB51E0FF4B51F0B74FFB5200671
:20059600B521030206E77457B51E0FF4B51F0B74FFB52006B52103020717744FB51E0FF41D
:2005B600B51F0B74FFB52006B52103020723743DB51E0FF4B51F0B74FFB52006B521030264
:2005D600070B741FB51E0FF4B51F0B74FFB52006B52103020747741DB51E0FF4B51F0B747A
:2005F600FFB52006B521030206F374FDB51E0EF4B51F0AE4B52006B5210302072F74EFB52B
:200616001E0EF4B51F0AE4B52006B5210302078F74E7B51E0EF4B51F0AE4B52006B52103F0
:2006360002077774DDB51E0EF4B51F0AE4B52006B521030206FF74CFB51E0EF4B51F0AE4A7
:20065600B52006B5210302076B74C7B51E0EF4B51F0AE4B52006B5210302079B74BDB51E2E
:200676000EF4B51F0AE4B52006B521030207B374B5B51E0EF4B51F0AE4B52006B5210302BA
:2006960007BF74ADB51E0EF4B51F0AE4B52006B521030207CB74A5B51E0EF4B51F0AE4B5D9
:2006B6002006B521030207A77497B51E0EF4B51F0AE4B52006B5210302075F7485B51E0EDD
:2006D600F4B51F0AE4B52006B521030207830203299016D675F080120D4D0203299016E25D
:2006F60075F080120D4D0203299016EF75F080120D4D0203299016FC75F080120D4D020359
:200716002990170B75F080120D4D02032990171775F080120D4D02032990172575F0801269
:200736000D4D02032990173075F080120D4D02032990173D75F080120D4D02032990174A71
:2007560075F080120D4D02032990175875F080120D4D02032990176575F080120D4D020324
:200776002990177275F080120D4D02032990177F75F080120D4D02032990178C75F08012D3
:200796000D4D02032990179975F080120D4D0203299017A675F080120D4D0203299017B3D6
:2007B60075F080120D4D0203299017C075F080120D4D0203299017CD75F080120D4D0203F4
:2007D60029C0E0C007C006C0D075D000758ABF758CE00512E4B512020513AE12AF13BE32EB
:2007F60008BF0005E4F512F513D0D0D006D007D0E032C0E0C0F0C007C006C005C004C003CC
:20081600C002C0D075D000851214851315E4F512F5130518B518020519AE14AF15C3EE940B
:200836001AEF9400401A741C9EE49F40137518FF7519FF751601E4F517F514F51502093BB9
:20085600C3EE9414EF9400402774199EE49F402005237405B52302800302093B75230475DC
:20087600220174FFF51EF51FF52075210002093BAC16AD17BC0105BD00028003020918AC5B
:2008960018E519FD30E703020918C3741F9C74808DF063F08095F04069EE9404EF94004045
:2008B6003A74069EE49F4033AD18741FC39DFD8DF005F07D017C008006ED2DFDEC33FCD52C
:2008D600F0F7EC3395E0FBFAED421AEC421BEB421CEA421DE4F514F515804AC3EE9404EF75
:2008F60094005007E4F514F515803AE4F514F515F516F517F518F519F51AF51BF51CF51DDB
:200916008023E5164517701DC3741C9EE49F5015E4F514F515F516F517F518F519F51AF534
:200936001BF51CF51DAE18AF19BE202ABF0027752300752201851A1E851B1F851C20851DD8
:2009560021E4F518F519F51AF51BF51CF51DF516F517F514F515D0D0D002D003D004D00507
:09097600D006D007D0F0D0E03229
:2016C700C0F9A4B0999282F880903A0020000049525F434F44455F5057520049525F434FEE
:2016E70044455F4D454E550049525F434F44455F544553540049525F434F44455F524554B3
:2017070055524E0049525F434F44455F52554E0049525F434F44455F434C454152004952EE
:201727005F434F44455F55500049525F434F44455F444F574E0049525F434F44455F4C4573
:2017470046540049525F434F44455F52494748540049525F434F44455F4E554D30004952C7
:201767005F434F44455F4E554D310049525F434F44455F4E554D320049525F434F44455F5E
:201787004E554D330049525F434F44455F4E554D340049525F434F44455F4E554D350049A5
:2017A700525F434F44455F4E554D360049525F434F44455F4E554D370049525F434F444521
:1317C7005F4E554D380049525F434F44455F4E554D3900EB
:20097F00AC82AD83AEF0FF43C40743C408EC4D4E4F602375C58375C6FF741055C4C4540F2C
:1A099F00FBBB01F553C4EF1CBCFF091DBDFF051EBEFF011F80D753C4F7224C
:2009B90043B30843B40843B31043B41075BE2743C0402243C02053C0F77EE87F037408556F
:2009D900C0C423541FFD7015C3E49E74808FF063F08095F050071EBEFF011F80E02243C07B
:2009F9001053C0F77EE87F03741055C0C4540FFDBD0115C3E49E74808FF063F08095F050EC
:200A1900071EBEFF011F80E022AF8243C00453C0F77DE87E03740855C0C423541FFC7015A5
:200A3900C3E49D74808EF063F08095F050071DBDFF011E80E0AEBCBF012A53C0FB53C0F774
:200A59007DE87F03740855C0C423541FFC7015C3E49D74808FF063F08095F050071DBDFFEB
:200A7900011F80E08E82228582BC53C0DF53C0F77EE87F03740855C0C423541FFD7015C3D4
:200A9900E49E74808FF063F08095F050071EBEFF011F80E0221209B9752800758207020AA1
:200AB900E9AF82C0071209CC7582D0120A80D0078F82120A801209CC7582D1120A8075822C
:200AD90001120A22AF82C0071209F7D0078F8222AF82C0071209CC7582D0120A80D0078F02
:200AF90082120A80852882120A800209F7AF828F0653060F5307F0E4C4CFC4540F6FCF544A
:200B19000FCF6FCF30E30244F0EF75F00AA42EF58222AF827E0075770A8E788F828E83C001
:200B390007C006121670AC82D006D007ECC454F0FC5304F075770A7578008F828E83C0045C
:0E0B590012163AAE82D004740F5E4CF5822262
:200B6700E493F58222E493FEA3E4938E82F58322AE82AF8353A87F75C7AA75C755439F01EF
:200B870043A88053A87F75C7AA75C75543A50143A88075AF218FA78EA68577AE53A87F7556
:200BA700C7AA75C75543A40143A88053A87F75C7AA75C75553A5FE43A88053A87F75C7AA27
:0A0BC70075C755539FFE43A8802216
:200BD10043F40853F37F43F35353B3FE53B1FE43B10253B3FD53B3FB43B40143B20143B294
:200BF1000243B40243B404439004439002228582F500748055F423540160F753F47F22121E
:200C11000BD175290B752A07758203120C4F752909752AFF758203120C4F75290C752A013B
:200C3100758203120C4F75290F752A00758203120C4F75290A752A01758203020C4FAF82B9
:200C51005390FD8F061FEE6012852982C007120BFF852A82120BFFD00780E843900222AF4A
:200C710082740F5FFEEFC4540FFF5390FD1EC3EE9F4016758200C007C006120BFF758200B1
:200C9100120BFFD006D00780E4852B82C007120BFF852C82120BFFD0071FBF010040127535
:1F0CB1008200C007120BFF758200120BFFD00780E843900222120BFF5390FB4390042283
:200CD00053B1BF53B2BF53B17F53B27F758DE6439840439810438920438780438E1053C45A
:200CF000DF4388405398FD22AF825398FD8F9974025598C31360F822AD82AE83AFF07C0081
:200D1000EC2DF9E43EFA8F0389828A838BF012161E6029EC2DF9E43EFA8F030C89828A83BD
:200D30008BF012161EF582C007C006C005C004120CF8D004D005D006D00780C422120D085C
:200D50009017DA75F080020D08AC82AD83AEF0FFC004C005C006C00774DDC0E07417C0E0D9
:200D70007480C0E0742DC0E07400C0E07440C0E0120EB5E58124F6F58190002D75F04002F7
:020D90000D084C
:0717DA000D0A00256C6900F7
:06004000E478FFF6D8FD94
:20001E007900E94400601B7A009017EC780175A000E493F2A308B8000205A0D9F4DAF27585
:02003E00A0FF21
:200D9200E577457860467A01E57725E0F577E578334012F578E5829577E583957840030AB6
:200DB20080E6C3E57813F578E57713F577C3E5829577F5F0E58395784005F58385F082C339
:0D0DD200E57813F578E57713F577DAE1227F
:200046007800E84400600A790175A000E4F309D8FC7800E84400600C7900900001E4F0A3B8
:04006600D8FCD9FAEF
:200DDF007A10E4FBFCE58225E0F582E58333F583EB33FBEC33FCEB9577F5F0EC957840064A
:090DFF00FCABF0438201DADD22B5
:200E0800C048858148C082058105810581E54824FBF8A9480909E6F708E609F708E609F7A0
:200E2800A848080886820886830886F012161EFAA312161EFBA312161EFF74012AFCE43B4D
:200E4800FD8F06A848080886820886830886F0EC1216ACA3ED1216ACA3EE1216AC8A828B41
:200E6800838FF0A84808E61216AC854881D0482285824585834685F0477556457557007587
:200E8800584085415985425A85435B85445C900E08120F9BAE82AF83AB45AC46AD478B8283
:200EA8008C838DF0E41216AC8E828F8322C048E581F54824F8FF8F5CE54824FBFF8F56754C
:200EC8005700755840E54824F8F8865908865A08865B900E08120F9BAE82AF83E54824FBA5
:1A0EE800F886030886040886058B828C838DF0E41216AC8E828F83D048229D
:200F0200AF82C04CC04DC04E120F0F8007C04AC04B8F82221581158115810554E4B554026E
:200F2200055522AF8274302FFF24C6500B74072FFFE54960034307208F82020F02E582FFBD
:200F4200C4540FF582C007120F25D007740F5FF582020F25858277AB4FAC50AD51AE52AA62
:200F6200537579208A07EF2FF578EE2354014578FAEB2BFBEC33FCED33FDEE33FEC3EA952B
:200F8200774008EAC39577FA430301D579D68B4F8C508D518E528A532285824A85834B85D6
:200FA200564C85574D85584EE4F554F555AD59AE5AAF5B8D828E838FF012161EFC74012D27
:200FC200F559E43EF55A8F5BECFF70030215E2BF250280030215DAE4F55DF55EF55FF56083
:200FE200F561F562F563F564F566F573F5747567FF7568FF85596D855A6E855B6F856D8253
:20100200856E83856FF012161EF570A385826D85836E856D59856E5A856F5B7425B570088F
:20102200857082120F02808574D025705068E57024C6406274FFB56736B568338573778594
:20104200747890000A121601858271858372AA707E00EA2571FAEE3572FEEA24D0F573EE14
:2010620034FFF574E57345747093755E01808E85677785687890000A121601AE82AB83AA49
:20108200707D00EA2EFEED3BFBEE24D0F567EB34FFF568020FFF742EB5701574FFB56705EF
:2010A200B568028003020FFFE4F567F568020FFF749F2570500EE570248540085370DF756C
:2010C200490180037549007420B57003021165742BB5700302115F742DB57002807974429F
:2010E200B5700302116B7443B570030211777444B570030212FB7446B5700302131274482B
:20110200B57003020FFF7449B570030212FB744AB57003020FFF744CB570028052744FB57A
:2011220070030213037450B570030212907453B5700280627454B57003020FFF7455B570D4
:20114200030213087458B5700302130D745AB57003020FFF021317755D01020FFF755F016D
:20116200020FFF756001020FFF756201020FFF756301020FFFE562600AE55C14F9895C873B
:2011820006800BE55C24FEFB8B5C8B0187068E82120F02021325E55C24FDFE8E5C8E018791
:2011A2000209870309870619198A4F8B508E518A828B838EF01215E985826D85836E74FF38
:2011C200B56709B56806856D67856E68E55D7037C3E56D9573E56E9574502CE573C3956D16
:2011E200F571E574956EF572AA71AE72157174FFB571021572EA4E6008758220120F028087
:20120200E7857173857274AB67AE68854F828550838551F012161EFA8A6B6034C3E49B74F6
:20122200808EF063F08095F050261BBBFF011E856B82C006C003120F02D003D006AA4FAC80
:2012420050AD510ABA00010C8A4F8C508D5180BBE55D7003021325C3E56D9573E56E957437
:201262004003021325E573C3956DF571E574956EF572AA71AE72157174FFB571021572EADC
:201282004E700302131F758220120F0280E4E55C24FDFE8E5C8E0187020987030987061915
:2012A200198A4F8B508E51AE51BE800040047B438014BE600040047B50800BBE40004004B3
:2012C2007B4980027B588B82C003120F0275823A120F02758230120F02758278120F02D000
:2012E20003BB4902800BBB50028006855082120F3F854F82120F3F802A75610175660A8072
:2013020022756608801D75660A80187566108013756401800E857082120F0280068571733D
:20132200857274E5646060E55C24FCFE8E5C8E018773098774098775098776191919857313
:201342004F857450857551857652754FE1755017755180854F7385507485517574012573AC
:20136200FAE43574FBAE758A4F8B508E518573828574838575F012161EFEFB7003020FAFE1
:201382008B82120F0280CCE5667003020FAFE562602BE55C14F9895C87068E027B007D0037
:2013A2007E008A4F8B508D518E52E5617064AA4FFBFDFE8A4F8B508D518E528055E5636043
:2013C20021E55C24FCFE8E5C8E0187020987030987050987061919198A4F8B508D518E520E
:2013E2008030E55C24FEFE8E5C8E01870309870619EEFA3395E0FDFE8B4F8A508D518E522B
:20140200E561700EAA4FAB50FDFE8A4F8B508D518E52E5616023E55230E71BC3E4954FFBED
:20142200E49550FCE49551FDE49552FE8B4F8C508D518E528003756100756501797F7D0038
:201442007E00755300856682C006C005C001120F56D001D005D006E5657014E553C454F08A
:20146200FCE553C4540F4204E7FB4CF7198002A7530DBD00010EE565B40100E433F565E5E1
:201482004F45504551455270B9896C8D698E6AE57345747005757301F574E55E702DE55D33
:2014A2007029AA73AB74AC690C7E00C3EC9AEE9B5015758220C003C002120F02D002D0031B
:2014C2001ABAFF011B80DF8A738B74E561601175822D120F02157374FFB573021574802E66
:2014E200E569456A6028E55F601175822B120F02157374FFB5730215748013E560600F7501
:201502008220120F02157374FFB573021574E55D7033AD73AE748D038E041DBDFF011EC352
:20152200E5699BE56A9C503EE55E60067B307C0080047B207C008B82C006C005120F02D051
:2015420005D00680D1C3E5699573E56A9574500FE573C39569F573E574956AF574800BE4DC
:20156200F573F57480048D738E74A96CAD69AE6A8D028E041DBDFF011EEA4C6030E565B4F2
:201582000100E433F565700A09E7C4540FFC8C5380078704740F5CF553855382C006C0054D
:2015A200C001120F25D001D005D00680C3E55D7003020FAFAD73AE748D038E041DBDFF01B0
:2015C2001EEB4C7003020FAF758220C006C005120F02D005D00680E08F82120F02020FAFBD
:0715E2008554828555832228
:0B17E1003C4E4F20464C4F41543E0050
:1815E900AA82AB8312161E6003A380F8C3E5829AF582E5839BF58322F4
:1D160100E5828577F0A4C582C0F08578F0A4D0F025F0C5838577F0A42583F583225E
:0D00110075817F1216A8E582600302000EC3
:1C161E0020F71430F6148883A88220F507E6A88375830022E280F7E49322E022DB
:20163A00C2D5E58330E70DD2D5E4C39582F582E49583F583E57830E70BE4C39577F577E49B
:16165A009578F578120D9230D50BE4C39582F582E49583F5832274
:20167000C2D5E58330E70DD2D5E4C39582F582E49583F583E57830E70DB2D5E4C39577F537
:1816900077E49578F578120DDF30D50BE4C39582F582E49583F5832294
:0416A8007582002225
:1B16AC0020F71130F6138883A88220F509F6A8837583002280FEF280F5F0223D
:00000001FF
