:040000000200613267
:01000B0032C2
:0100130032BA
:01001B0032B2
:0100230032AA
:03002B000204F4D8
:01003300329A
:03003B000203E0DD
:01004300328A
:01004B003282
:01005300327A
:03005B000203A3FA
:0F00BA00750D56750F007510FF7511007512004A
:0300FB0002005EA2
:03005E0002012379
:2000FE0053C98F43C9605388FE43C90843C98075CAF675CBC275CC0075CD00439B8043A84F
:20011E008043C804227F008F95903000C00712065B85820CD00774F5250C5003750C00908B
:20013E003001C00712065B85820FD00774F8250F5003750F00E50F24F850030201D2E50FA6
:20015E00240B83F582E50F240C83F583E4737C87929DA8B3BEC90101010101010101751041
:20017E00EF751203751107804B7510A07512407511C680407510FF75129975110080357544
:20019E0010FF7512EB751100802A75101D7512B9751154801F75101575120D7511F78014F6
:2001BE0075106E7512007511FF80097510FD7512F47511DC53B1DF43B2205380DF53B1BFCD
:2001DE0043B2405380BF53B1FE43B20153B1FD43B20253B1FB43B20453B1F743B208438097
:2001FE000F53B3EF43B41043901053B3F743B40843900853E8F043E80753B4FD43B302754E
:20021E00F60043F68043E10143A84043E90143E94043EA1053EBEF43E92043EA0853EBF708
:20023E00439B02C00712082E1200FED00743A88043E84074015580FE7007750832F5098008
:20025E003274025580C313FE7007750864F5098022740455800303543FFE7007750896F5D4
:20027E0009801074085580C423541FFE70057508C8F509EFB401009200E433FFE50C24F510
:20029E005003020390E50C240B83F582E50C240F83F583E473C9DCFB1934465A63757E9055
:2002BE000202020303030303030303851036851137851282C007120953D00702039085101B
:2002DE003F85114075410A7542007543E8754403851282C007120BFBD007020390851046D9
:2002FE00851147754806754900754A32754B00851282C007120CE4D00780778510178511DF
:20031E001875190A751A40751B01851282C007121741D007805C851073851174851282C0C7
:20033E0007121742D007804A8510558511568F57851282C007121070D0078036C0071211E7
:20035E0015D007802D85105D85115E851282C007121236D007801BC007121382D00780127D
:20037E008510688511698F6A851282C00712152DD0077412B50D028003020291750D5675B0
:20039E000E00020291C0E0C007C006C005C004C0D075D000AEC3E4C454F0CEC4CE6ECE54C4
:2003BE00F0CE6EFFACC27D00EC4206ED42078E0A8F0B53E87FD0D0D004D005D006D007D0ED
:2003DE00E032C021C0E0C0F0C082C083C007C006C005C004C003C002C001C000C0D075D046
:2003FE00007408B5EC28E50D6024050CE50C24F55003750C007534007535007582001209D0
:20041E001D90A12075F007E41206070204D47410B5EC0280030204D4E50D70030204D4053F
:20043E000F750D5674F8250F5003750F00E50F24F850030204CAE50F240B83F582E50F24D8
:20045E000C83F583E473747F8A95A0ABB6C104040404040404047510EF7512037511078021
:20047E004B7510A07512407511C680407510FF75129975110080357510FF7512EB751100C0
:20049E00802A75101D7512B9751154801F75101575120D7511F7801475106E7512007511FA
:2004BE00FF80097510FD7512F47511DC90A12075F007E412060775EC00D0D0D000D001D005
:2004DE0002D003D004D005D006D007D083D082D0F0D0E0D02132C021C0E0C0F0C082C083E5
:2004FE00C007C006C005C004C003C002C001C000C0D075D000050E7428B50E297456B50DC6
:20051E00249030011206C59030001206C5850C1790300012066B850F1790300112066B5331
:20053E009BFD750D00E50E54036002805BAE08AF0974015580FD7007750832F509803274FD
:20055E00025580C313FD7007750864F5098022740455800303543FFD7007750896F50980F0
:20057E001074085580C423541FFD70057508C8F509EEB50806EFB50902800312082EE50DD0
:20059E00700363802043E840E50D600363802053C87FD0D0D000D001D002D003D004D005DB
:0F05BE00D006D007D083D082D0F0D0E0D0213249
:2005CD00AC82AD83AEF0FF43C40743C408EC4D4E4F602375C58375C6FF741055C4C4540FE2
:2005ED00FBBB01F553C4EF1CBCFF091DBDFF051EBEFF011F80D753C4F722858217858318BE
:20060D0085F019F51A900005E4F5F0121A73AC82AD83AEF0C313FFEE13FEED13FDEC13FC6B
:20062D00EFC313FFEE13FEED13FDEC13FC0CBC00090DBD00050EBE00010F1CBCFF091DBDBC
:0E064D00FF051EBEFF011FEC4D4E4F70ED224B
:20065B00E493F58222E493FEA3E4938E82F58322AE82AF8353A87F75C7AA75C755439F0100
:20067B0043A88053A87F75C7AA75C75543A50143A88075AF218FA78EA68517AE53A87F75C7
:20069B00C7AA75C75543A40143A88053A87F75C7AA75C75553A5FE43A88053A87F75C7AA38
:2006BB0075C755539FFE43A88022AE82AF8353A87F75C7AA75C755439F0143A88075AEFF4E
:2006DB0075AF2253A87F75C7AA75C75543A50143A8808FA78EA653A87F75C7AA75C75543D6
:2006FB00A40143A88053A87F75C7AA75C75553A5FE43A88053A87F75C7AA75C755539FFE9C
:04071B0043A880224D
:2000C90075220175230475240875251475263275275F75286475295F752A32752B14752CA8
:0700E90008752D04752E01BE
:20071F00AE82AF83EE4F700490000022C007C006121885AC82AD83D006D0078C828D838E02
:20073F00178F18021A26AE82AF83C3EE952FEF953040058E828F8322E52FC39EF582E53085
:20075F009FF583C007C00612071FE5828583F0D006D0072EF582EF35F0F58322438040003C
:20077F00005380BF0000000022438040000000000000005380BF22E582FF30E709C0071290
:20079F000788D0078007C00712077BD007EF30E609C007120788D0078007C00712077BD01C
:2007BF0007EF30E509C007120788D0078007C00712077BD007EF30E409C007120788D007C3
:2007DF008007C00712077BD007EF30E309C007120788D0078007C00712077BD007EF30E23D
:2007FF0009C007120788D0078007C00712077BD007EF30E109C007120788D0078007C00743
:20081F0012077BD007EF30E00302078802077B7E007F008E048F05C3EC942CED94015021B2
:20083F00758200C007C006120796758200120796758200120796D006D0070EBE00D50F803D
:20085F00D2227F008F057E00C3ED9508EE950950648F17751800900003C007121A09AD8276
:20087F00AE83ED2401F582EE3400F583E0F582C006C005120796D005D00674012DFBE43E0A
:20089F00FCEB2401F582EC3400F583E0F582C006C005120796D005D00674022DFDE43EFE22
:2008BF00ED2401F582EE3400F583E0F582120796D0070F808F22AE82AF838E178F1890009B
:2008DF0003121A09AE82AF83EE2401F582EF3400F583E531F074012EFCE43FFDEC2401F56F
:2008FF0082ED3400F583E532F074022EFEE43FFFEE2401F582EF3400F583E533F022AF8273
:20091F007D007E008D038E04C3EB9508EC950950228F318534328535338D828E83C007C015
:20093F0006C0051208D5D005D006D0070DBD00D40E80D122858238850C3B850F3C7B007C6B
:20095F00008B018C02C3E994FFEA648094804003020A5AE50CB53B07E50FB53C02800475CC
:20097F000D12228536177518008B828C83C004C003121A09751700751801121C89A982D014
:20099F0003D0048538177518008B828C83C004C003C001121A09751700751801121C89A8EE
:2009BF0082D001D003D0048537177518008B828C83C004C003C001C000121A097517007564
:2009DF001801121C89AA82D000D0018A358934888212091D1208618508178509189000C880
:2009FF0012185C850A17850B18121A0975176475180012185CE5828583F02401FAE435F045
:200A1F00FD8A008D017A007D00888289838AF0ED1205CD85088285098375173275180012CD
:200A3F00185CAA82AD83D003D0048B008C01EA28FAED39FD8A038D04020960753DFF753EEC
:200A5F0000AA3DAB3EC3E49A74808BF063F08095F0400122E50CB53B07E50FB53C028004E9
:200A7F00750D1222853D82853E83121AE1A882A983AAF0FBE4C0E0C0E07480C0E07443C0F0
:200A9F00E0888289838AF0EB121B3DA882A983AAF0FBE58124FCF581853682C003C002C009
:200ABF0001C000121C00AC82AD83AEF0FFD000D001D002D003C003C002C001C000C004C05D
:200ADF0005C006C007888289838AF0EB121905AC82AD83AEF0FFE58124FCF5818C828D83A5
:200AFF008EF0EF121C0B85823A853882121C00AC82AD83AEF0FFD000D001D002D003C0037F
:200B1F00C002C001C000C004C005C006C007888289838AF0EB121905AC82AD83AEF0FFE5D2
:200B3F008124FCF5818C828D838EF0EF121C0B858239853782121C00AC82AD83AEF0FFD044
:200B5F0000D001D002D003C004C005C006C007888289838AF0EB121905AC82AD83AEF0FF44
:200B7F00E58124FCF5818C828D838EF0EF121C0B858235853A3485398212091D12086185EF
:200B9F0008178509189000C812185C850A17850B18121A0975176475180012185CE5828521
:200BBF0083F02401FEE435F0FF7D007C008E828F838DF0EC1205CD8508828509837517194B
:200BDF0075180012185CAE82AF83AC3DAD3EECC39EFEED9FFF8E3D8F3E020A60AF82AE0CE8
:200BFF00850F457B007C00C3EB9541EC64808542F063F08095F04003020CD2EEB50C07E5E5
:200C1F000FB545028004750D1222853F348540358F82C007C006C004C00312091D120861A6
:200C3F008508178509189000C812185C850A17850B18121A0975176475180012185CE58280
:200C5F008583F02401F9E435F0F87A007D00898288838AF0ED1205CD7534007535007582BC
:200C7F000012091D1208618508178509189000C812185C850A17850B18121A097517647592
:200C9F00180012185CE5828583F02401FAE435F0FD8A008D017A007D00888289838AF0ED87
:200CBF001205CDD003D004D006D0070BBB00010C020C06AC43E544FD3395E0FE8C828D831D
:200CDF008EF00205CD85824C850C4D850F4EE4F54FF550A948AA49E508C399F8E5099AFD79
:200CFF00E824FEF8ED34FFFDAE4FAF50C3EE98EF9D4003020E327534007535007582001204
:200D1F00091DAE467F0075170A8F188E828F83121C89AE82AD4C7F0075170A8F188D828F82
:200D3F0083C006121C89AD82A8477F0075170A8F1888828F83C005121C89A882D005D0064D
:200D5F008E318D328833854F82855083C006C005C0001208D5D000D005D0067C017F00C319
:200D7F00E5489CE54964808FF063F08095F04041E50CB54D07E50FB54E028004750D1222F4
:200D9F00EC254FF582EF3550F583854C31854632854733C007C006C005C004C0001208D5AE
:200DBF00D000D004D005D006D0070CBC00B10F80AEE548254FFCE5493550FF0CBC00010F11
:200DDF008C828F838E318D3288331208D51208618508178509189000C812185C850A1785DE
:200DFF000B18121A0975176475180012185CE5828583F02401FEE435F0FF7D007C008E82E6
:200E1F008F838DF0EC1205CD054FE4B54F020550020CF2AC4AE54BFD3395E0FEFF8C828D5E
:200E3F00838EF0C007C006C005C004C002C0011205CDD001D002D004D005D006D007E5082F
:200E5F00C399F9E5099AFAE924FEF9EA34FFFA89008A03C3E49874808BF063F08095F04025
:200E7F0003021066C004C005C006C007753400753500758200C007C006C005C004C002C0E0
:200E9F000112091DA8467B0075170A8B1888828B83121C89A882D001D002D004D005D0063D
:200EBF00D007AB4C7F0075170A8F188B828F83C005C004C002C001C000121C89AE828E53D6
:200EDF00AE477F0075170A8F188E828F83121C89AE82AF83D000D001D002D004D0058E5409
:200EFF00883185533285543389828A83C007C006C005C004C002C001C0001208D5D000D004
:200F1F0001D002D004D005D006D007755101755200D007D006D005D004C3E5489551E549A1
:200F3F0064808552F063F08095F0404CE50CB54D07E50FB54E028004750D1222E55129F582
:200F5F0082E5523AF583854C31854632854733C007C006C005C004C002C001C0001208D5C1
:200F7F00D000D001D002D004D005D006D0070551E4B551A5055280A1C004C005C006C00716
:200F9F00E54829FBE5493AFF0BBB00010F8B828F838831855332855433C007C006C005C0A4
:200FBF0004C002C0011208D51208618508178509189000C812185CD001D002D004D005D0DD
:200FDF0006D007850A17850B18C005C004C002C001121A09AE82AF83D001D002D004D005D8
:200FFF008E828F83751764751800C007C006C005C004C002C00112185CE5828583F0D001E4
:20101F00D002D004D005D006D0072401FEE435F0FF7D007C008E828F838DF0ECC007C0064D
:20103F00C005C004C002C0011205CDD001D002D004D005D006D00719B9FF011AD007D0060F
:20105F00D005D004020E6E8C828D838EF0EF0205CDAF82AE0C850F587B007C00C3EB9508D2
:20107F00EC9509400122EEB50C07E50FB558028004750D1222E55770068B018C028011E52F
:20109F0008C39BF8E5099CFDE824FFF9ED34FFFA89828A838F31855532855633C007C006AF
:2010BF00C004C0031208D51208618508178509189000C812185C850A17850B18121A097500
:2010DF00176475180012185CE5828583F02402FAE435F0FD8A008D017A007D0088828983B9
:2010FF008AF0ED1205CDD003D004D006D0070BBB00010C02107B850C59850F5A7C007D0001
:20111F008D0374FB2B5001227A007B00C3EA9508EB950940030211EBE50CB55907E50FB55B
:20113F005A028004750D12228A008801780088828983850817850918C005C004C003C00201
:20115F0012185CA882D002D003D004D0058C01E928F9B955005017E975F003A4F88906EEFC
:20117F0075F003A4D394FFF4FE755C008038B9AA00501D8907EF24ABF55BFF75F003A4D317
:20119F0094FFF4F87E00E55B75F003A4F55C8016E92456F9780075F003A4FEE975F003A42D
:2011BF00D394FFF4F55C88318E32855C338A828B83C005C004C003C0021208D5D002D0031C
:2011DF00D004D0050ABA00010B02112BC005C0041208618508178509189000C812185C8588
:2011FF000A17850B18121A0975170A75180012185CE5828583F02401FEE435F0FF7B007AAA
:20121F00008E828F838BF0EA1205CDD004D0050CBC00010D02111F85825FAE0CAD0FE4F5DE
:20123F0060F561A960AA61C3E9940AEA6480948040012279007A0089008A04C3E89403ECFE
:20125F006480948040030213777B007C008B008C07C3E89508EF9509504BEEB50C06EDB5CC
:20127F000F028004750D1222E92BF582EA3CF583855F31855D32855E33C006C005C004C08D
:20129F0003C002C0011208D5D001D002D003D004D005D0068B008C07740328F8E43FFF8866
:2012BF00038F0480A8C006C005C002C0011208618508178509189000C812185C850A178575
:2012DF000B18121A0975170A75180012185CE5828583F02401FCE435F0FF8C008F037C00CC
:2012FF007F0088828B838CF0EF1205CDD001D002D005D0067C007F008C008F03C3E895083A
:20131F00EB9509504BEEB50C06EDB50F028004750D1222E92CF582EA3FF58375310075326E
:20133F0000753300C007C006C005C004C002C0011208D5D001D002D004D005D006D0078CD9
:20135F00008F03740328F8E43BFB88048B0780A809B900010A0212560560E4B560020561E8
:20137F00021242850C62850F63E4F565F566AB66C3EB648094814001227A007B008A008B50
:20139F0001C3E89403E96480948040030215227800790088048905C3EC9508ED9509400369
:2013BF00021481E50CB56207E50FB563028004750D1222E56528FCE56639FD8C828D83759E
:2013DF0017FF751800C003C002C001C000121C13AC82D000D001D002D003BC55005017EC2C
:2013FF0075F003A4FD8C06EE75F003A4D394FFF4FE7567008038BCAA00501D8C07EF24AB29
:20141F00F564FF75F003A4D394FFF4FD7E00E56475F003A4F5678016EC2456FC7D0075F0E9
:20143F0003A4FEEC75F003A4D394FFF4F567EA28F582EB39F5838D318E32856733C003C0F5
:20145F0002C001C0001208D5D000D001D002D0038806890774032EFEE43FFF8E008F0102B2
:20147F0013B2C003C0021208618508178509189000C812185C850A17850B18121A09751751
:20149F000A75180012185CE5828583F02401FEE435F0FF7D007C008E828F838DF0EC1205EB
:2014BF00CDD002D0037E007F008E048F05C3EC9508ED95095045E50CB56207E50FB56302EF
:2014DF008004750D1222EA2EF582EB3FF583753100753200753300C007C006C003C0021269
:2014FF0008D5D002D003D006D0078E048F0574032CFCE43DFD8C068D0780AE0ABA00010B97
:20151F0002139C0565E4B56502056602138DAF82AE0C850F6B7B007C00A908AA09896CEA60
:20153F00C313C56C13C56CF56D8B6E8C6FC3E56E956CE56F956D4003021630EEB50C07E558
:20155F000FB56B028004750D1222E56A600CE56E256CF8E56F356DFD800E19B9FF011AE914
:20157F00C3956EF8EA956FFD88828D838F31856832856933C007C006C004C0031208D5D0B6
:20159F0003D004D006D007E56A601CAA08E509C313CA13CAFD1ABAFF011D8B008C01EAC30D
:2015BF0098FAED99FD80048B028C058A828D838F31856832856933C007C006C004C0031213
:2015DF0008D51208618508178509189000C812185C850A17850B18121A097517647518006C
:2015FF0012185CE5828583F02401FAE435F0FD8A008D017A007D00888289838AF0ED12051F
:20161F00CDD003D004D006D0070BBB00010C02153890012CE4F5F00205CD8582718583721C
:20163F00857117857218900003121A09AC82AD8374012CFAE43DFBEA2401F582EB3400F5F8
:20165F0083E0FBEC2401F582ED3400F583E0FA74022CFCE43DFDEC2401F582ED3400F58335
:20167F00E0FDEB24F59201400679007C00802E8B008BF0E570A4F58285F083751700751867
:20169F0001C005C002C000121C89AB82AF83D000D002D005E8C39BF8F93395E0FCEA24F578
:2016BF00920140067E007F00802E8A048AF0E570A4F58285F083751700751801C005C00474
:2016DF00C001121C89AA82AB83D001D004D005ECC39AFCFE3395E0FFED24F5920140067C5A
:2016FF00007F00802E8D038DF0E570A4F58285F083751700751801C006C003C001121C890E
:20171F00AA82AD83D001D003D006EBC39AFBFC3395E0FF8C338E31893285718285728302C1
:20173F0008D522858275850C76850F777C00BC0D004001228C03E4F578F57985787A857992
:20175F007BC3E57A9508E57B95094003021819EB2422F987068EF0E575A4F58285F08375A5
:20177F001764751800C006C004C003121C89AD82D003D004D0068EF0E573A4F58285F083A9
:20179F00751764751800C006C005C004C003121C89AA82D003D004D005D0068EF0E574A4EB
:2017BF00F58285F083751764751800C005C004C003C002121C89AE82D002D003D004D005DB
:2017DF008E338D318A32857A82857B83C004C0031208D5D003D0048B070BBF0C027B00E5C4
:2017FF000CB57607E50FB577028004750D12220578E4B57802057902175AC00412086185EB
:20181F0008178509189000C812185C850A17850B18121A0975176475180012185CE5828594
:1D183F0083F02401FEE435F0FF7D007B008E828F838DF0EB1205CDD0040C02174D42
:20185C007A10E4FBFCE58225E0F582E58333F583EB33FBEC33FCEB9517F5F0EC9518400682
:09187C00FCABF0438201DADD222D
:0B00F000751301E4F514F5157516807A
:20188500AC13AD14AE15AF168D00EEC313C813C8C313C813C8F9EF030354C049F9EF030395
:2018A500543FFA7B00EC6200ED6201EE6202EF6203E828FDE933FEEA33FF7C00E86204E9E1
:2018C5006205EA6206EB6207EFC313F8E4F9FAFBE86204E96205EA6206EB62078C138D14E3
:2018E5008E158F168C82747F5DF58322AE82AF837D007C008E138F148D1574804CF51622F5
:201905001219A8BC0003021B0FEF60FA30D502B2D1E583B4FF03021B25E582B4FF03021B97
:2019250025258340072482400B021B0F2483145003021B25F582EA8DF0A4A8F0EA8EF0A4FB
:2019450028F8E435F0F9EB8DF0A428E935F0F9E433CA8FF0A429F9EA35F0FAEBF88EF0A4F1
:2019650029F9EA35F0FAE433FBEC8DF0A429F9EA35F0FAE43BFBE88FF0A42AFAEB35F0FB99
:20198500E433CCFD8EF0A42AFAEB35F0FBE43CFCED8FF0A42BFBEC35F0FC20E7031219D6A7
:0319A500021AEE35
:2019A800AA82AB83A2F73392D1F5826002D2F7ACF0E58124F9F8E6FD08E6FE0886F008E6A2
:0E19C800A2F73392D5F5836002D2F7AFF0227A
:06009000E478FFF6D8FD44
:2019D6007804EC7011E58224F8500AF582E4C9CACBFCD8EF22EC7820058220E713D5820110
:1319F60022C3E933F9EA33FAEB33FBEC33FCD8EA1582221E
:20006E007900E94400601B7A00901D41785975A002E493F2A308B8000205A0D9F4DAF27580
:02008E00A0FFD1
:1D1A0900E5828517F0A4C582C0F08518F0A4D0F025F0C5838517F0A42583F5832272
:201A2600E517451860467A01E51725E0F517E518334012F518E5829517E583951840030A15
:201A460080E6C3E51813F518E51713F517C3E5829517F5F0E58395184005F58385F082C3D8
:0D1A6600E51813F518E51713F517DAE1225E
:201A7300AAF0FBE5828517F0A4FCADF0E5838517F0A42DFDE435F0FEE5828518F0A42DFD03
:201A9300E5F03EFEE433FFEA8517F0A42EFEE5F03FFFE5838518F0A42EFEE5F03FFFE58274
:201AB3008519F0A42EFEE5F03FFFEB8517F0A42FFFEA8518F0A42FFFE5838519F0A42FFF48
:0E1AD300E582851AF0A42F8EF08D838C82227E
:200096007800E84400600A790175A000E4F309D8FC7858E84402600C7903900001E4F0A30B
:0400B600D8FCD9FA9F
:0D1AE100AC83AB827A007900748E021C5237
:201AEE00B98003EA13B34010EA2401FAE43BFBE43CFC50047C800582BC000EBB000BBA003C
:201B0E0008E4F5F0F583F58222A2D1E582138CF092F78B838A8222E4F583F58275F080F4FB
:0F1B2E00A2D11322E4F583F58275F0C0747F22F3
:201B3D001219A830D502B2D1BF0009BC0003021B32021B25BC0003021B0FE583B4FF0BE51D
:201B5D0082B4FF03021B32021B0FE582B4FF03021B25C395835007247F400B021B0F248066
:201B7D00145003021B25F582C3ED9AEE9BEF9C40111582C3EA33F9EB33FAEC33FBE433FCC4
:201B9D008005E4CCCBCAF9C08275F019C3E99DEA9EEB9FEC9400D5F002802D400EE99DF989
:201BBD00EA9EFAEB9FFBEC9400FCC3B3E833F8E58233F582E58333F583C3E933F9EA33FAE9
:201BDD00EB33FBEC33FC80C4B3E4F938FAE43582FBE43583FCD082500405827C801219D656
:031BFD00021B06C2
:0D00610075817B121CC1E582600302005E08
:0B1C0000E4AC82FBFAF97486021C7F42
:081C0B007F86121CC7F582223E
:201C1300C2D5E58330E70DD2D5E4C39582F582E49583F583E51830E70BE4C39517F517E4DC
:161C33009518F518121A2630D50BE4C39582F582E49583F58322B4
:201C4900FCABF0AA83A982749EF582C2D1EC30E716D2D1E9F42401F9EAF43400FAEBF4349A
:0D1C690000FBECF43400FC1219D6021AEE58
:131C7600FCABF0AA83A982749EC2D1F5821219D6021AEE45
:201C8900C2D5E58330E70DD2D5E4C39582F582E49583F583E51830E70DB2D5E4C39517F5D8
:181CA90017E49518F51812185C30D50BE4C39582F582E49583F583220D
:041CC1007582002206
:201CC5007F9E121D2F30D103021B0FC3EF9582500974FFF5F0F583F582227900121CEC89AD
:071CE500828A838BF0EC22E0
:201CEC006040F82582500274FFF582E824F8501ECCCBCAF9E4CC24F85014CBCAF9E4CB2400
:201D0C00F8500BCAF9E4CA24F8500379002224086010F8C3EC13FCEB13FBEA13FAE913F9B2
:031D2C00D8F122C9
:121D2F00AA82AB83A2F73392D1F5826002D2F7ACF022B9
:00000001FF
