:040000000200613267
:01000B0032C2
:0100130032BA
:01001B0032B2
:0100230032AA
:03002B000205DDEE
:01003300329A
:03003B0002053289
:01004300328A
:01004B003282
:01005300327A
:03005B000204F5A7
:1200BA00750D56750F007510FF75110075120002005EE7
:03005E0002016834
:2000CC00E50F24F8500122E50F240B83F582E50F240C83F583E473F3FD07111B252F39004E
:2000EC00000101010101017510EF751203751107227510A07512407511C6227510FF7512DC
:20010C0099751100227510FF7512EB7511002275101D7512B97511542275101575120D7573
<<<<<<< HEAD
:20012C0011F72275106E7512007511FF227510FD7512F47511DC2253C98F43C96053C8FEB7
=======
:20012C0011F72275106E7512007511FF227510FD7512F47511DC2253C98F43C9605388FEF7
>>>>>>> 70fbbfa16cd8480cff11e056a004b56e6d185941
:20014C0043C90843C98075CAF675CBC275CC0075CD00439B8043A88043C8042275950090A5
:20016C00300012074485820C74F8250C5003750C0090300112074485820F74F8250F50033B
:20018C00750F001200CC53B1DF43B2205380DF53B1BF43B2405380BF53B1FE43B20153B1C1
:2001AC00FD43B20253B1FB43B20453B1F743B20843800F53B3EF43B41043901053B3F7435E
:2001CC00B40843900853E8F043E80753B4FD43B30275F60043F68043E10143A84043E90182
:2001EC0043E94043EA1053EBEF43E92043EA0853EBF7439B021208BB12014343A88043E8C6
:20020C004074015580FF7007750832F509803274025580C313FF7007750864F509802274E7
:20022C000455800303543FFF7007750896F509801074085580C423541FFF70057508C8F5D0
:20024C0009E50C24F850030204E2E50C240B83F582E50C240C83F583E473767C8A99CBFDD7
:20026C00263502020303030304041212EF0204E2AE0F7F007516058F178E828F83122246F6
:20028C00AE82AF83BE0005BF00028025BE0105BF00028046BE0205BF00028067BE0306BF89
:2002AC000003020338BE0406BF00030203610204E27547EF7548077549017582031212517D
:2002CC007412B50D030204E27547FF7548007549007582991212510204E27547FF75480044
:2002EC007549017582991212517412B50D030204E27547FF7548007549007582EB1212516E
:20030C000204E275471D7548547549017582B91212517412B50D030204E27547157548F763
:20032C0075490075820D1212510204E27547A07548C67549017582401212517412B50D03FD
:20034C000204E27547FF7548007549007582EB1212510204E275471D754854754901758294
:20036C00B91212517412B50D030204E27547EF7548077549007582031212510204E28510F7
:20038C002985112A8512821209D40204E2850816850917900005121EE575166475170012F9
:2003AC001929AE82AF838E348F35851032851133753632753700851282120C4D0204E285FD
:2003CC000816850917900005121EE5751664751700121929AE82AF838E3F8F4085103D8580
:2003EC00113E7541327542008512821210070204E285104B85114C754D018512821214080D
:20040C007412B50D030204E2754B00754C00754D007582001214080204E28510538511547B
:20042C0085128212160F0204E2AE0F7F007516058F178E828F83122246AE82AF83BE000545
:20044C00BF00028020BE0105BF0002802FBE0205BF0002803EBE0305BF0002804DBE04762B
:20046C00BF0073805C755AEF755B07755C99755DFF755E00758203121788805A755AFF75F7
:20048C005B00755CEB755DFF755E007582991217888043755A1D755B54755C0D755D157547
:2004AC005EF77582B9121788802C755AA0755BC6755CEB755DFF755E007582401217888001
:2004CC0015755A1D755B54755C03755DEF755E077582B91217887412B50D02800302024DFD
:2004EC00750D56750E0002024DC0E0C007C006C005C004C0D075D000AEC3E4C454F0CEC4CA
:20050C00CE6ECE54F0CE6EFFACC27D00EC4206ED42078E0A8F0B53E87FD0D0D004D005D0EC
:20052C0006D007D0E032C021C0E0C0F0C082C083C007C006C005C004C003C002C001C0001E
:20054C00C0D075D0007408B5EC27E50D6023050CE50C24F85003750C007527007528007561
:20056C0082001209A890A12075F007E41206F080407410B5EC3BE50D6037050F750D567478
:20058C0001B50C0B74FB250F500E750F00800974F8250F5003750F007527007528007582CD
:2005AC00001209A81200CC90A12075F007E41206F075EC00D0D0D000D001D002D003D004CA
:2005CC00D005D006D007D083D082D0F0D0E0D02132C021C0E0C0F0C082C083C007C006C052
:2005EC0005C004C003C002C001C000C0D075D000050E7428B50E297456B50D24903001122D
:20060C0007AE9030001207AE850C16903000120754850F16903001120754539BFD750D0079
:20062C00E50E54036002805BAE08AF0974015580FD7007750832F509803274025580C3137B
:20064C00FD7007750864F5098022740455800303543FFD7007750896F5098010740855804D
:20066C00C423541FFD70057508C8F509EEB50806EFB5090280031208BBE50D70036380203F
:20068C0043E840E50D600363802053C87FD0D0D000D001D002D003D004D005D006D007D0E5
:0A06AC0083D082D0F0D0E0D02132DC
:2006B600AC82AD83AEF0FF43C40743C408EC4D4E4F602375C58375C6FF741055C4C4540FF8
:2006D600FBBB01F553C4EF1CBCFF091DBDFF051EBEFF011F80D753C4F722858216858317D6
:2006F60085F018F519900005E4F5F0121F02AC82AD83AEF0C313FFEE13FEED13FDEC13FCF0
:20071600EFC313FFEE13FEED13FDEC13FC0CBC00090DBD00050EBE00010F1CBCFF091DBDD2
:0E073600FF051EBEFF011FEC4D4E4F70ED2261
:20074400E493F58222E493FEA3E4938E82F58322AE82AF8353A87F75C7AA75C755439F0116
:2007640043A88053A87F75C7AA75C75543A50143A88075AF218FA78EA68516AE53A87F75DE
:20078400C7AA75C75543A40143A88053A87F75C7AA75C75553A5FE43A88053A87F75C7AA4E
:2007A40075C755539FFE43A88022AE82AF8353A87F75C7AA75C755439F0143A88075AEFF64
:2007C40075AF2253A87F75C7AA75C75543A50143A8808FA78EA653A87F75C7AA75C75543EC
:2007E400A40143A88053A87F75C7AA75C75553A5FE43A88053A87F75C7AA75C755539FFEB2
:0408040043A8802263
:2008080043804000005380BF0000000022438040000000000000005380BF22E582FF30E7E5
:2008280009C007120815D0078007C007120808D007EF30E609C007120815D0078007C0076A
:20084800120808D007EF30E509C007120815D0078007C007120808D007EF30E409C0071291
:200868000815D0078007C007120808D007EF30E309C007120815D0078007C007120808D01D
:2008880007EF30E209C007120815D0078007C007120808D007EF30E109C007120815D00755
:2008A8008007C007120808D007EF30E0030208150208087E007F00758200C007C00612081B
:2008C80023758200120823758200120823D006D0070EBE00010F8E048F05C3EC942CED94E6
:2008E8000140D4227F008F057E00C3ED9508EE950950648F16751700900003C007121EE5FB
:20090800AD82AE83ED2401F582EE3400F583E0F582C006C005120823D005D00674012DFBE5
:20092800E43EFCEB2401F582EC3400F583E0F582C006C005120823D005D00674022DFDE424
:200948003EFEED2401F582EE3400F583E0F582120823D0070F808F22AE82AF838E168F17D9
:20096800900003121EE5AE82AF83EE2401F582EF3400F583E524F074012EFCE43FFDEC2478
:2009880001F582ED3400F583E525F074022EFEE43FFFEE2401F582EF3400F583E526F0223E
:2009A800AF827E008E047D00C3EC9508ED9509501A8F248527258528268C828D83C007C034
:2009C80006120960D006D0070E80D92285822B850C2E850F2F7C00E50CB52E07E50FB52F75
:2009E800028004750D12228CF0E529A4F58285F083751600751701C0041222BCAA82D0044A
:200A08008CF0E52BA4F58285F083751600751701C004C0021222BCA982D002D0048CF0E56F
:200A28002AA4F58285F083751600751701C004C002C0011222BCA882D001D00288288A27F4
:200A480089821209A81208EC8508168509179000C8121929850A16850B17121EE575166476
:200A6800751700121929E5828583F02401FAE435F0FB8A008B017A007B00888289838AF071
:200A8800EB1206B6850882850983751632751700121929AA82AB83D004EA2CFCBCFF00508D
:200AA800030209DF7530FF753100A930AA31C3E49974808AF063F08095F0400122E50CB534
:200AC8002E07E50FB52F028004750D12228530828531831220EEA882A983AAF0FDE4C0E0C4
:200AE800C0E07480C0E07443C0E0888289838AF0ED122170A882A983AAF0FDE58124FCF5DB
:200B080081852982C005C002C001C000122233AB82AC83AEF0FFD000D001D002D005C005A7
:200B2800C002C001C000C003C004C006C007888289838AF0ED121952AB82AC83AEF0FFE57E
:200B48008124FCF5818B828C838EF0EF12223E85822D852B82122233AB82AC83AEF0FFD0E5
:200B680000D001D002D005C005C002C001C000C003C004C006C007888289838AF0ED121931
:200B880052AB82AC83AEF0FFE58124FCF5818B828C838EF0EF12223E85822C852A82122273
:200BA80033AB82AC83AEF0FFD000D001D002D005C003C004C006C007888289838AF0ED1216
:200BC8001952AC82AD83AEF0FFE58124FCF5818C828D838EF0EF12223E858228852D278521
:200BE8002C821209A81208EC8508168509179000C8121929850A16850B17121EE575166432
:200C0800751700121929E5828583F02401FEE435F0FF7D007C008E828F838DF0EC1206B610
:200C2800850882850983751619751700121929AE82AF83AB30AC31EBC39EFEEC9FFF8E305C
:200C48008F31020AB2858238850C23850F22753900AC34AD35E508C39CFAE5099DFBEA241B
:200C6800FEFAEB34FFFBA8397900C3E89AE99B4003020DA77527007528007582001209A84C
:200C8800AA397B00A832790075160A8B1788828983C003C0021222BCA882A9387F007516C4
:200CA8000A8F1789828F83C0001222BCA982D000AE337F0075160A8F178E828F83C001C076
:200CC800001222BCAE82D000D001D002D003882489258E268A828B83C006C001C00012091C
:200CE80060D000D001D006753A01AA3A7B00C3E5349AE53564808BF063F08095F04042E558
:200D08000CB52307E50FB522028004750D1222C006AA397B00AE3A7F00EE2AFAEF3BFB8A8D
:200D2800828B83853824853225853326C006C001C000120960D000D001D006053AD00680B2
:200D4800A9AB397F00E5342BFBE5353FFF0BBB00010F8B828F83882489258E261209601258
:200D680008EC8508168509179000C8121929850A16850B17121EE575166475170012192953
:200D8800E5828583F02401FEE435F0FF7B007A008E828F838BF0EA1206B60539020C59AA28
:200DA80036E537FB3395E0FEFF8A828B838EF0C007C006C005C004C003C0021206B6D00266
:200DC800D003D004D005D006D007E508C39CFCE5099DFDEC24FEFCED34FFFD8C008D01C30E
:200DE800E498748089F063F08095F04003020FFDC002C003C006C007752700752800758217
:200E080000C007C006C005C004C003C0021209A8A832790075160A8917888289831222BCDE
:200E2800A882D002D003D004D005D006D007A9387F0075160A8F1789828F83C005C004C084
:200E480003C002C0001222BCAE828E3BAE337F0075160A8F178E828F831222BCAE82AF830D
:200E6800D000D002D003D004D0058E3C8824853B25853C268C828D83C007C006C005C004D6
:200E8800C003C002C000120960D000D002D003D004D005D006D007753A01D007D006D0038F
:200EA800D002C002C003C006C007A93A7F00C3E53499E53564808FF063F08095F0D007D0F3
:200EC80006D003D002405FE50CB52307E50FB522028004750D1222C002C003C006C007A92E
:200EE8003A7F008C038D06E92BF9EF3EFF89828F83853824853225853326C007C006C005CC
:200F0800C004C003C002C000120960D000D002D003D004D005D006D007053AD007D006D0BE
:200F280003D002020EAAC002C003C006C007E5342CF9E5353DFF09B900010F89828F8388FD
:200F480024853B25853C26C007C006C005C004C003C0021209601208EC85081685091790A5
:200F680000C8121929D002D003D004D005D006D007850A16850B17C005C004C003C00212E6
:200F88001EE5AE82AF83D002D003D004D0058E828F83751664751700C007C006C005C004E3
:200FA800C003C002121929E5828583F0D002D003D004D005D006D0072401FEE435F0FF7B50
:200FC800007A008E828F838BF0EAC007C006C005C004C003C0021206B6D002D003D004D056
:200FE80005D006D0071CBCFF011DD007D006D003D002020DE38A828B838EF0EF0206B68534
:201008008243850C23850F227E00AC3FAD40E508C39CFAE5099DFBEA24FEFAEB34FFFB8ECA
:20102800007900C3E89AE99B40030210E4853D27853E28854382C0061209A8D0067B00A98C
:201048003FAA4009B900010A8B45754600C3E99545EA64808546F063F08095F04037E50C38
:20106800B52307E50FB522028004750D12228E017A00E54529F9E5463AFA89828A8375241D
:2010880000752500752600C006C003120960D003D0060B80AAC0061208EC8508168509171D
:2010A8009000C8121929850A16850B17121EE5751664751700121929E5828583F02401FACE
:2010C800E435F0FB8A008B017A007B00888289838AF0EB1206B6D0060E021012A941E54297
:2010E800FA3395E0FBFE89828A838BF0C006C005C004C003C002C0011206B6D001D002D0E4
:2011080003D004D005D006E508C39CFCE5099DFDEC24FEFCED34FFFD8C008D07C3E498747B
:20112800808FF063F08095F04003021247853D27853E28854382C006C005C004C003C002C0
:20114800C0011209A8D001D002D003D004D005D006754400A83FAF4008B800010F854445A1
:20116800754600C3E89545EF64808546F063F08095F04048E50CB52307E50FB52202800498
:20118800750D12228C008D07E54528F8E5463FFF88828F83752400752500752600C006C04E
:2011A80005C004C003C002C001120960D001D002D003D004D005D00605448098C001C002C4
:2011C800C003C006C006C005C004C003C002C0011208EC8508168509179000C8121929856A
:2011E8000A16850B17121EE5751664751700121929E5828583F0D001D002D003D004D005BE
:20120800D0062401F8E435F0FB7E007F0088828B838EF0EFC006C005C004C003C002C001B8
:201228001206B6D001D002D003D004D005D0061CBCFF011DD006D003D002D00102112089E6
:20124800828A838BF0EE0206B6AF82850C23850F227E008E047D00C3EC9508ED9509400190
:2012680022E50CB52307E50FB522028004750D1222E54970058E04FD80178E027B00A808E9
:20128800A909E8C39AF8E99BF9E824FFFCE934FFFD8C828D838F24854725854826C007C07E
:2012A800061209601208EC8508168509179000C8121929850A16850B17121EE575166475E6
:2012C8001700121929E5828583F02402FCE435F0FD7B007A008C828D838BF0EA1206B6D0FE
:2012E80006D0070E02125B850C23850F227E007F008E048F0574FB2D5001227D008D037C67
:2013080000C3EB9508EC950940030213BDE50CB52307E50FB522028004750D12228D038BE9
:20132800047B008B828C83850816850917C007C006C005121929AB82D005D006D0078E04DB
:20134800EC2BFCBC55005016EC75F003A4FB8C02EA75F003A4D394FFF4FA79008036BCAA9B
:2013680000501C8C00E824ABF54AF875F003A4D394FFF4FB7A00E54A75F003A4F98015ECEF
:201388002456FC7B0075F003A4FAEC75F003A4D394FFF4F98D007C008B248A2589268882E3
:2013A8008C83C007C006C005120960D005D006D0070D021305C007C0061208EC85081685E5
:2013C80009179000C8121929850A16850B17121EE575160A751700121929E5828583F024E0
:2013E80001FCE435F0FD7B007A008C828D838BF0EA1206B6D006D0070EBE00010F0212F906
:20140800AF82850C23850F227D007E00AB08AC098B01ECC313C913C9FA8D4E8E4FC3E54E2B
:2014280099E54F9A40030214FEE50CB52307E50FB522028004750D1222E54D600AE54E2917
:20144800F9E54F3AFA800E1BBBFF011CEBC3954EF9EC954FFA89828A838F24854B25854CBE
:2014680026C007C006C005120960D005D006D007E54D601CAB08E509C313CB13CBFC1BBB4F
:20148800FF011C8D018E02EBC399FBEC9AFC80048D038E048B828C838F24854B25854C26E5
:2014A800C007C006C0051209601208EC8508168509179000C8121929850A16850B17121EE1
:2014C800E5751664751700121929E5828583F02401FBE435F0FC8B018C027B007C008982B0
:2014E8008A838BF0EC1206B6D005D006D0070DBD00010E02141490012CE4F5F00206B68554
:201508008251858352855116855217900003121EE5AC82AD8374012CFAE43DFBEA2401F5FB
:2015280082EB3400F583E0FBEC2401F582ED3400F583E0FA74022CFCE43DFDEC2401F58270
:20154800ED3400F583E0FDEB24F39200400679007C00802E8B008BF0E550A4F58285F08342
:20156800751600751701C005C002C0001222BCAB82AF83D000D002D005E8C39BF8F933953F
:20158800E0FCEA24F3920040067E007F00802E8A048AF0E550A4F58285F08375160075177C
:2015A80001C005C004C0011222BCAA82AB83D001D004D005ECC39AFCFE3395E0FFED24F326
:2015C800920040067C007F00802E8D038DF0E550A4F58285F083751600751701C006C0038C
:2015E800C0011222BCAA82AD83D001D003D006EBC39AFBFC3395E0FF8C268E24892585518E
:2016080082855283020960858255850C23850F22E4F556F557F558F559C056C057C058C09A
:2016280059900FDB75F0C97440121EB5E58124FCF581E58224FF92015001227A008A0079FF
:2016480000C3E89508E99509501175501488828983C002121507D0020A80E2A908E509C3D3
:2016680013C913C9FA8556828557838558F0E559C002C001121A56A882AD83AEF0FFE4C049
:20168800E0C0E07480C0E0743FC0E088828D838EF0EF121FBDAC82AD83AEF0FFE58124FCE5
:2016A800F581D001D00289828A83C007C006C005C0041220FBA882A983AAF0FBD004D0051A
:2016C800D006D007C004C005C006C007888289838AF0EB121952AC82AD83AEF0FFE58124C2
:2016E800FCF5818C828D838EF0EF12223EAF82C007740AC0E074D7C0E07423C0E0743CC0CB
:20170800E08556828557838558F0E559121FBD85825685835785F058F559E58124FCF58159
:201728008508168509179000C8121929850A16850B17121EE575160A751700121929E58270
:201748008583F02401FDE435F0FE7C007B008D828E838CF0EB1206F0D0077E008555248502
:2017680053258554268F828E831209601208ECE50CB52308E50FB52203021621750D1222B9
:2017880085825F850C23850F22E4F560F561F562F563C060C061C062C063900FDB75F0C905
:2017A8007440121EB5E58124FCF581E58224FF92025001227A008A007900C3E89508E995B8
:2017C80009501175501488828983C002121507D0020A80E2A908E509C313C913C9FA856081
:2017E800828561838562F0E563C002C001121A56A882AD83AEF0FFE4C0E0C0E07480C0E023
:20180800743FC0E088828D838EF0EF121FBDAC82AD83AEF0FFE58124FCF581D001D00289D5
:20182800828A83C007C006C005C0041220FBA882A983AAF0FBD004D005D006D007C004C009
:2018480005C006C007888289838AF0EB121952AC82AD83AEF0FFE58124FCF5818C828D83E1
:201868008EF0EF12223EAF82C007740AC0E074D7C0E07423C0E0743CC0E085608285618329
:201888008562F0E563121FBD85826085836185F062F563E58124FCF5818508168509179060
<<<<<<< HEAD
:2018A80000C8121929850A16850B17121EE5751664751700121929E5828583F02401FDE46F
=======
:2018A80000C8121929850A16850B17121EE575160A751700121929E5828583F02401FDE4C9
>>>>>>> 70fbbfa16cd8480cff11e056a004b56e6d185941
:2018C80035F0FE7C007B008D828E838CF0EB1206B6D0078F057E00855F24855A25855B2696
:2018E8008D828E83C007120960D007AD08AE091DBDFF011E7C00EDC39FFDEE9CFE8D828E56
:2019080083855C24855D25855E261209601208ECE50CB52308E50FB5220302179A750D12C0
:01192800229C
:201929007A10E4FBFCE58225E0F582E58333F583EB33FBEC33FCEB9516F5F0EC95174006B6
:09194900FCABF0438201DADD225F
:201952001219F5BC0003022128EF60FA30D502B2D1E583B4FF0302213EE582B4FF030221B9
:201972003E258340072482400B022128248314500302213EF582EA8DF0A4A8F0EA8EF0A457
:2019920028F8E435F0F9EB8DF0A428E935F0F9E433CA8FF0A429F9EA35F0FAEBF88EF0A4A4
:2019B20029F9EA35F0FAE433FBEC8DF0A429F9EA35F0FAE43BFBE88FF0A42AFAEB35F0FB4C
:2019D200E433CCFD8EF0A42AFAEB35F0FBE43CFCED8FF0A42BFBEC35F0FC20E703121A230C
:0319F200022107C8
:2019F500AA82AB83A2F73392D1F5826002D2F7ACF0E58124F9F8E6FD08E6FE0886F008E655
:0E1A1500A2F73392D5F5836002D2F7AFF0222C
:06009000E478FFF6D8FD44
:201A23007804EC7011E58224F8500AF582E4C9CACBFCD8EF22EC7820058220E713D58201C2
:131A430022C3E933F9EA33FAEB33FBEC33FCD8EA158222D0
:201A5600AC82AD83AEF0FF8CF0ED42F0EE42F0EF547F45F0700990000075F080743F22758B
:0C1A760064018C828D838EF0EF021A82D6
:20006E007900E94400601B7A009023DA785975A002E493F2A308B8000205A0D9F4DAF275E1
:02008E00A0FFD1
:201A820085826585836685F067F568E56460418565828566838567F0E568122016A882A929
:201AA20083AAF0FB74DBC0E0740FC0E074C9C0E0743FC0E0888289838AF0EB121FBDA88237
:201AC200A983AAF0FBE58124FCF581757500803DE4C0E0C0E0C0E0C0E085658285668385DD
:201AE20067F0E568121EB5AF82E58124FCF581EF6010A865A966AA67E568B2E7FB757501D6
:201B0200800BA865A966AA67AB68757500C003C002C001C000C000C001C002C003900C0066
:201B220075F0497446121EB5AF82E58124FCF581D000D001D002D003EF600D751422751552
:201B420000900000E4F5F022C000C001C002C00390F98375F0A2743E121952AC82AD83AEB4
:201B6200F0FFE58124FCF581E4C0E0C0E0C0E0743FC0E08C828D838EF0EF121FBDAC82AD0D
:201B820083AEF0FFE58124FCF5818C828D838EF0EF1220BAAE82AF83EE30E009E575B40138
:201BA20000E433F5758E828F831220EE85827185837285F073F574E564602AE4C0E0C0E026
:201BC200C0E0743FC0E08571828572838573F0E5741222F485827185837285F073F574E58D
:201BE2008124FCF5818565828566838567F0E56812201685826985836A85F06BF56C12202C
:201C0200BA1220EEA882A983AAF0FBC003C002C001C000C000C001C002C003856982856A92
:201C220083856BF0E56C1222F485827685837785F078F579E58124FCF581C071C072C073DD
:201C4200C07490000075F0497440121952AC82AD83AEF0FFE58124FCF581D000D001D00275
:201C6200D003C004C005C006C007888289838AF0EB1222F4AC82AD83AEF0FFE58124FCF560
:201C820081C076C077C078C0798C828D838EF0EF121FBDAC82AD83AEF0FFE58124FCF58173
:201CA200C007C006C005C004C071C072C073C07490AA2275F07D743A121952A882A983AAD9
:201CC200F0FBE58124FCF581D004D005D006D007C000C001C002C0038C828D838EF0EF1222
:201CE20022F4AC82AD83AEF0FFE58124FCF581C007C006C005C004C004C005C006C0078C1D
:201D0200828D838EF0EF12195285826D85836E85F06FF570E58124FCF581C06DC06EC06F8C
:201D2200C07090FFF375F07F7433121EB5AB82E58124FCF581D004D005D006D007EB7003A2
:201D4200021E95C007C006C005C004C06DC06EC06FC070909C5B75F02E7436121952A88291
:201D6200A983AAF0FBE58124FCF5817422C0E074B2C0E0744FC0E074B9C0E0888289838AD8
:201D8200F0EB121FBDA882A983AAF0FBE58124FCF581C06DC06EC06FC070888289838AF047
:201DA200EB121952A882A983AAF0FBE58124FCF581743EC0E07487C0E07408C0E0743CC059
:201DC200E0888289838AF0EB121FBDA882A983AAF0FBE58124FCF581C06DC06EC06FC07017
:201DE200888289838AF0EB121952A882A983AAF0FBE58124FCF58174A4C0E074AAC0E07418
:201E02002AC0E074BEC0E0888289838AF0EB121FBDA882A983AAF0FBE58124FCF581C06DA7
:201E2200C06EC06FC070888289838AF0EB121952A882A983AAF0FBE58124FCF581D004D090
:201E420005D006D007C007C006C005C004C000C001C002C0038C828D838EF0EF121952A802
:201E620082A983AAF0FBE58124FCF581D004D005D006D007C000C001C002C0038C828D83A7
:201E82008EF0EF121FBDAC82AD83AEF0FFE58124FCF581E575600C8C008D018E02EFB2E7F6
:131EA200FB80088C008D018E028F03888289838AF0EB22D1
:201EB500FFA881181812208FD2D133E6400730E70B7582002220E70675820122C2D11220CA
:101ED50071E97003F5822220D101B3E433F5822242
:1D1EE500E5828516F0A4C582C0F08517F0A4D0F025F0C5838516F0A42583F5832295
:201F0200AAF0FBE5828516F0A4FCADF0E5838516F0A42DFDE435F0FEE5828517F0A42DFD72
:201F2200E5F03EFEE433FFEA8516F0A42EFEE5F03FFFE5838517F0A42EFEE5F03FFFE582E2
:201F42008518F0A42EFEE5F03FFFEB8516F0A42FFFEA8517F0A42FFFE5838518F0A42FFFB8
:0E1F6200E5828519F0A42F8EF08D838C8222EB
:201F7000E516451760467A01E51625E0F516E517334012F517E5829516E583951740030ACE
:201F900080E6C3E51713F517E51613F516C3E5829516F5F0E58395174005F58385F082C38F
:0D1FB000E51713F517E51613F516DAE12213
:201FBD001219F57900E583B58202800D5003122156E583C395821222FFE5D0C465D020E13D
:201FDD0017EA2DFAEB3EFBEC3FFC500974011222FFEC4480FC022107C3EA9DFAEB9EFBECE6
:191FFD009FFC500FC3E499F9E49AFAE49BFBE49CFCB2D1121A230221072E
:200096007800E84400600A790175A000E4F309D8FC7858E84402600C7903900001E4F0A30B
:0400B600D8FCD9FA9F
:20201600C013858113AC82AD83AEF0FFE5812404F581E51304F8A60408A60508A60608A60C
:2020360007A91309870409870509870609870719191953077FA70409A70509A70609A70780
:1B205600A9130987040987050987060987078C828D838EF0EF851381D01322B4
:202071007901AA82E68F82B5821318E6B5F00E18E6B5830918E68A82B58202790022B48066
:202091000FE5F0700AE5837006E58270027F00EFB6801518B6001018B6000B18B6000608CE
:0920B10008087600220808082244
:2020BA00122342700AE582458345F0700122E430D112F4700BE5F0F47006E58330E70122D7
:1420DA0090800022700AE5F07006E58320E70122907FFF2239
:0D20EE00AC83AB827A007900748E022285EB
:0C20FB00E4AC83AB82FAF9748E0222B2CE
:20210700B98003EA13B34010EA2401FAE43BFBE43CFC50047C800582BC000EBB000BBA001C
:2021270008E4F5F0F583F58222A2D1E582138CF092F78B838A8222E4F583F58275F080F4DC
:0F214700A2D11322E4F583F58275F0C0747F22D4
:1A215600E582C583F582A2D133A2D592D11392D5ECCFFCEBCEFBEACDFA2211
:202170001219F530D502B2D1BF0009BC000302214B02213EBC0003022128E583B4FF0BE53A
:2021900082B4FF0302214B022128E582B4FF0302213EC395835007247F400B0221282480B1
:2021B00014500302213EF582C3ED9AEE9BEF9C40111582C3EA33F9EB33FAEC33FBE433FC6C
:2021D0008005E4CCCBCAF9C08275F019C3E99DEA9EEB9FEC9400D5F002802D400EE99DF950
:2021F000EA9EFAEB9FFBEC9400FCC3B3E833F8E58233F582E58333F583C3E933F9EA33FAB0
:20221000EB33FBEC33FC80C4B3E4F938FAE43582FBE43583FCD082500405827C80121A23CE
:0322300002211F69
:0D00610075817912239DE582600302005E27
:0B223300E4AC82FBFAF974860222B2D0
:08223E007F861223B5F5822210
:20224600C2D5E58330E70DD2D5E4C39582F582E49583F583E51730E70BE4C39516F516E4A6
:162266009517F517121F7030D50BE4C39582F582E49583F583222E
:20227C00FCABF0AA83A982749EF582C2D1EC30E716D2D1E9F42401F9EAF43400FAEBF43461
:0D229C0000FBECF43400FC121A23022107B1
:1322A900FCABF0AA83A982749EC2D1F582121A230221079E
:2022BC00C2D5E58330E70DD2D5E4C39582F582E49583F583E51730E70DB2D5E4C39516F5A1
:1822DC0016E49517F51712192930D50BE4C39582F582E49583F5832209
:0B22F400A8811818C6B2E7C6021FBD83
:2022FF006040F82582500274FFF582E824F8501ECCCBCAF9E4CC24F85014CBCAF9E4CB24E7
:20231F00F8500BCAF9E4CA24F8500379002224086010F8C3EC13FCEB13FBEA13FAE913F999
:03233F00D8F122B0
:202342001223A1C3749E9582403979001222FF30D126E9F42401F582EAF43400F583EBF48B
:202362003400F5F0ECF43400700AE582458345F0700122E430E70F22EC20E71489828A8372
:1B2382008BF02230D10AE4F582F583F5F074802274FFF582F583F5F0747F226E
:04239D007582002223
:1223A100AA82AB83A2F73392D1F5826002D2F7ACF02241
:2023B3007F9E1223A130D103022128C3EF9582500974FFF5F0F583F5822279001222FF8908
:0723D300828A838BF0EC22EB
:00000001FF
