:040000000200613267
:01000B0032C2
:0100130032BA
:01001B0032B2
:0100230032AA
:03002B000203428B
:01003300329A
:03003B0002029727
:01004300328A
:01004B003282
:01005300327A
:03005B0002025A44
:1200BA00750D56750F007510FF75110075120002005EE7
:03005E0002016834
:2000CC00E50F24F8500122E50F240B83F582E50F240C83F583E473F3FD07111B252F39004E
:2000EC00000101010101017510EF751203751107227510A07512407511C6227510FF7512DC
:20010C0099751100227510FF7512EB7511002275101D7512B97511542275101575120D7573
:20012C0011F72275106E7512007511FF227510FD7512F47511DC2253C98F43C96053C8FEB7
:20014C0043C90843C98075CAF675CBC275CC0075CD00439B8043A88043C8042275950090A5
:20016C0030001204A985820C74F8250C5003750C009030011204A985820F74F8250F500377
:20018C00750F001200CC53ACFE43AD0153B0FE53B1BF43B2405380BF53B1FE43B20153B17C
:2001AC00FD43B20253B1FB43B20453B1F743B20843800F53B3EF43B41043901053B3F7435E
:2001CC00B40843900853E8F043E80753B4FD43B30275F60043F68043E10143A84043E90182
:2001EC0043E94043EA1053EBEF43E92043EA0853EBF7439B0212062012014343A88043E863
:20020C004074015580FF7007750832F509803274025580C313FF7007750864F509802274E7
:20022C000455800303543FFF7007750896F509801074085580C423541FFF70057508C8F5D0
:20024C00097412B50DFB750D56750E0080F3C0E0C007C006C005C004C0D075D000AEC3E498
:20026C00C454F0CEC4CE6ECE54F0CE6EFFACC27D00EC4206ED42078E0A8F0B53E87FD0D06E
:20028C00D004D005D006D007D0E032C020C0E0C0F0C082C083C007C006C005C004C003C0CC
:2002AC0002C001C000C0D075D0007408B5EC27E50D6023050CE50C24F85003750C007518A2
:2002CC000075190075820012070D90A12075F007E412045580407410B5EC3BE50D603705AD
:2002EC000F750D567401B50C0B74FB250F500E750F00800974F8250F5003750F00751800B8
:20030C0075190075820012070D1200CC90A12075F007E412045575EC00D0D0D000D001D0CA
:20032C0002D003D004D005D006D007D083D082D0F0D0E0D02032C020C0E0C0F0C082C0839A
:20034C00C007C006C005C004C003C002C001C000C0D075D000050E7428B50E297456B50D79
:20036C0024903001120513903000120513850C1A9030001204B9850F1A9030011204B953AD
:20038C009BFD750D00E50E54036002805BAE08AF0974015580FD7007750832F509803274B1
:2003AC00025580C313FD7007750864F5098022740455800303543FFD7007750896F50980A4
:2003CC001074085580C423541FFD70057508C8F509EEB50806EFB509028003120620E50D94
:2003EC00700363B00143E840E50D600363B00153C87FD0D0D000D001D002D003D004D0056D
:0F040C00D006D007D083D082D0F0D0E0D02032FD
:20041B00AC82AD83AEF0FF43C40743C408EC4D4E4F602375C58375C6FF741055C4C4540F95
:20043B00FBBB01F553C4EF1CBCFF091DBDFF051EBEFF011F80D753C4F72285821A85831B6B
:20045B0085F01CF51D900005E4F5F0120756AC82AD83AEF0C313FFEE13FEED13FDEC13FC49
:20047B00EFC313FFEE13FEED13FDEC13FC0CBC00090DBD00050EBE00010F1CBCFF091DBD70
:0E049B00FF051EBEFF011FEC4D4E4F70ED22FF
:2004A900E493F58222E493FEA3E4938E82F58322AE82AF8353A87F75C7AA75C755439F01B4
:2004C90043A88053A87F75C7AA75C75543A50143A88075AF218FA78EA6851AAE53A87F7578
:2004E900C7AA75C75543A40143A88053A87F75C7AA75C75553A5FE43A88053A87F75C7AAEC
:2005090075C755539FFE43A88022AE82AF8353A87F75C7AA75C755439F0143A88075AEFF01
:2005290075AF2253A87F75C7AA75C75543A50143A8808FA78EA653A87F75C7AA75C7554389
:20054900A40143A88053A87F75C7AA75C75553A5FE43A88053A87F75C7AA75C755539FFE4F
:0405690043A8802201
:20056D0043804000005380BF0000000022438040000000000000005380BF22E582FF30E783
:20058D0009C00712057AD0078007C00712056DD007EF30E609C00712057AD0078007C007E2
:2005AD0012056DD007EF30E509C00712057AD0078007C00712056DD007EF30E409C0071209
:2005CD00057AD0078007C00712056DD007EF30E309C00712057AD0078007C00712056DD033
:2005ED0007EF30E209C00712057AD0078007C00712056DD007EF30E109C00712057AD007CD
:20060D008007C00712056DD007EF30E00302057A02056D7E007F00758200C007C006120595
:20062D0088758200120588758200120588D006D0070EBE00010F8E048F05C3EC942CED945A
:20064D000140D4227F008F057E00C3ED9508EE950950648F1A751B00900003C00712073953
:20066D00AD82AE83ED2401F582EE3400F583E0F582C006C005120588D005D00674012DFB21
:20068D00E43EFCEB2401F582EC3400F583E0F582C006C005120588D005D00674022DFDE460
:2006AD003EFEED2401F582EE3400F583E0F582120588D0070F808F22AE82AF838E1A8F1B0D
:2006CD00900003120739AE82AF83EE2401F582EF3400F583E515F074012EFCE43FFDEC24E8
:2006ED0001F582ED3400F583E516F074022EFEE43FFFEE2401F582EF3400F583E517F022FA
:20070D00AF827E008E047D00C3EC9508ED9509501A8F158518168519178C828D83C007C01C
:0C072D00061206C5D006D0070E80D922A7
:06009000E478FFF6D8FD44
:20006E007900E94400601B7A009007C8780175A003E493F2A308B8000205A0D9F4DAF27566
:02008E00A0FFD1
:1D073900E582851AF0A4C582C0F0851BF0A4D0F025F0C583851AF0A42583F583224C
:20075600AAF0FBE582851AF0A4FCADF0E583851AF0A42DFDE435F0FEE582851BF0A42DFD2A
:20077600E5F03EFEE433FFEA851AF0A42EFEE5F03FFFE583851BF0A42EFEE5F03FFFE5829E
:20079600851CF0A42EFEE5F03FFFEB851AF0A42FFFEA851BF0A42FFFE583851CF0A42FFF6C
:0E07B600E582851DF0A42F8EF08D838C8222AB
:200096007800E84400600A790175A000E4F309D8FC7800E84403600C7903900001E4F0A362
:0400B600D8FCD9FA9F
:0D0061007581201207C4E582600302005E75
:0407C4007582002218
:00000001FF
