:040000000200613267
:01000B0032C2
:0100130032BA
:01001B0032B2
:0100230032AA
:03002B00021502B9
:01003300329A
:03003B000214A606
:01004300328A
:01004B003282
:01005300327A
:03005B0002146923
:1500BA0075210A752200752300752410752500752600752700E8
:0300DA0002005EC3
:03005E0002119AF2
:2000DD00AE82AF83EE4F700490000022C007C006121741AC82AD83D006D0078C828D838E90
:2000FD000C8F0D021950AE82AF83C3EE9528EF952940058E828F8322E528C39EF582E529D7
:20011D009FF583C007C0061200DDE5828583F0D006D0072EF582EF35F0F5832243804000CD
:20013D00005380BF0000000022438040000000000000005380BF22E582FF30E709C00712D8
:20015D000146D0078007C007120139D007EF30E609C007120146D0078007C007120139D084
:20017D0007EF30E509C007120146D0078007C007120139D007EF30E409C007120146D007E3
:20019D008007C007120139D007EF30E309C007120146D0078007C007120139D007EF30E25D
:2001BD0009C007120146D0078007C007120139D007EF30E109C007120146D0078007C00763
:2001DD00120139D007EF30E0030201460201397E007F008E048F05C3EC942CED94015021D3
:2001FD00758200C007C006120154758200120154758200120154D006D0070EBE00D50F805E
:20021D00D222E0F58222E50CF0227F008F057E00C3ED9521EE95224001228F0C750D0090A5
:20023D000003C0071218C5AD82AE83C006C00512021FAC82D005D00674012DFAE43EFB8AAE
:20025D00828B83C006C005C00412021FAB82D004D005D00674022DFDE43EFE8D828E83C023
:20027D0004C00312021FAE82D003D0048C82C006C003120154D0038B82120154D0068E8265
:20029D00120154D0070F020229AE82AF838E0C8F0D9000031218C5AE82AF83852A0CC007C9
:2002BD00C006120223D006D00774012EFCE43FFD8C828D83852B0CC007C006120223D00644
:2002DD00D00774022EFEE43FFF8E828F83852C0C020223AF827D007E008D038E04C3EB95CF
:2002FD0021EC952250228F2A852D2B852E2C8D828E83C007C006C0051202A6D005D006D08F
:20031D00070DBD00D40E80D1228582318525347C007D008C028D03C3EA94FFEB648094804A
:20033D004003020425E525B53402800475261222852F0C750D008C828D83C005C0041218D7
:20035D00C5750C00750D01121B61AA82D004D00585310C750D008C828D83C005C004C002A7
:20037D001218C5750C00750D01121B61A982D002D004D00585300C750D008C828D83C00513
:20039D00C004C002C0011218C5750C00750D01121B61A882D001D002882E8A2D898212021F
:2003BD00F012022785210C85220D9000C812171885230C85240D1218C5750C64750D001224
:2003DD001718E5828583F02401FAE435F0FB8A008B017A007B00888289838AF0EB12168A17
:2003FD00852182852283750C32750D00121718AA82AB83D004D0058C008D01EA28FAEB39CB
:20041D00FB8A048B050203307535FF753600AA35AB36C3E49A74808BF063F08095F0400114
:20043D0022E525B5340280047526122285358285368312199DA882A983AAF0FBE4C0E0C0C4
:20045D00E07480C0E07443C0E0888289838AF0EB1219F9A882A983AAF0FBE58124FCF5812E
:20047D00852F82C003C002C001C000121ABCAC82AD83AEF0FFD000D001D002D003C003C077
:20049D0002C001C000C004C005C006C007888289838AF0EB1217C1AC82AD83AEF0FFE581E0
:2004BD0024FCF5818C828D838EF0EF121AC7858233853182121ABCAC82AD83AEF0FFD000E6
:2004DD00D001D002D003C003C002C001C000C004C005C006C007888289838AF0EB1217C108
:2004FD00AC82AD83AEF0FFE58124FCF5818C828D838EF0EF121AC7858232853082121ABC12
:20051D00AC82AD83AEF0FFD000D001D002D003C004C005C006C007888289838AF0EB1217C3
:20053D00C1AC82AD83AEF0FFE58124FCF5818C828D838EF0EF121AC785822E85332D853297
:20055D00821202F012022785210C85220D9000C812171885230C85240D1218C5750C64750B
:20057D000D00121718E5828583F02401FEE435F0FF7D007C008E828F838DF0EC12168A85CB
:20059D002182852283750C19750D00121718AE82AF83AC35AD36ECC39EFEED9FFF8E358FC6
:2005BD003602042BAF82AE257C007D00C3EC9539ED6480853AF063F08095F0400302069486
:2005DD00EEB5250280047526122285372D85382E8F82C007C006C005C0041202F0120227A7
:2005FD0085210C85220D9000C812171885230C85240D1218C5750C64750D00121718E58277
:20061D008583F02401FAE435F0FB8A008B017A007B00888289838AF0EB12168A752D007553
:20063D002E007582001202F012022785210C85220D9000C812171885230C85240D1218C5E1
:20065D00750C64750D00121718E5828583F02401FAE435F0FB8A008B017A007B00888289B5
:20067D00838AF0EB12168AD004D005D006D0070CBC00010D0205C9AC3DE53EFD3395E0FE18
:20069D008C828D838EF002168A858247852548E4F549F54AAA41AB42E521C39AF8E5229B89
:2006BD00F9E824FEF8E934FFF9AE49AF4AC3EE98EF9940030207EC752D00752E00758200D8
:2006DD001202F0AE3F7F00750C0A8F0D8E828F83121B61AE82A9477F00750C0A8F0D8982E5
:2006FD008F83C006121B61A982A8407F00750C0A8F0D88828F83C001121B61A882D001D088
:20071D00068E2A892B882C854982854A83C006C001C0001202A6D000D001D0067D017F007F
:20073D00C3E5419DE54264808FF063F08095F0403CE525B54802800475261222ED2549F50C
:20075D0082EF354AF58385472A853F2B85402CC007C006C005C001C0001202A6D000D00110
:20077D00D005D006D0070DBD00B60F80B3E5412549FDE542354AFF0DBD00010F8D828F83E7
:20079D008E2A892B882C1202A612022785210C85220D9000C812171885230C85240D121894
:2007BD00C5750C64750D00121718E5828583F02401FEE435F0FF7D007C008E828F838DF08D
:2007DD00EC12168A0549E4B54902054A0206B1AC45E546FD3395E0FEFF8C828D838EF0C00A
:2007FD0007C006C005C004C003C00212168AD002D003D004D005D006D007E521C39AFAE512
:20081D00229BFBEA24FEFAEB34FFFB8A008B01C3E498748089F063F08095F04003020A1B60
:20083D00C004C005C006C007752D00752E00758200C007C006C005C004C003C0021202F0AA
:20085D00A83F7900750C0A890D88828983121B61A882D002D003D004D005D006D007A94741
:20087D007F00750C0A8F0D89828F83C005C004C003C002C000121B61AE828E4DAE407F00C4
:20089D00750C0A8F0D8E828F83121B61AE82AF83D000D002D003D004D0058E4E882A854D84
:2008BD002B854E2C8A828B83C007C006C005C004C003C002C0001202A6D000D002D003D07D
:2008DD0004D005D006D007754B01754C00D007D006D005D004C3E541954BE5426480854CF8
:2008FD00F063F08095F04047E525B54802800475261222E54B2AF582E54C3BF58385472A05
:20091D00853F2B85402CC007C006C005C004C003C002C0001202A6D000D002D003D004D0AC
:20093D0005D006D007054BE4B54BAA054C80A6C004C005C006C007E5412AF9E5423BFF09CA
:20095D00B900010F89828F83882A854D2B854E2CC007C006C005C004C003C0021202A6127F
:20097D00022785210C85220D9000C8121718D002D003D004D005D006D00785230C85240DCD
:20099D00C005C004C003C0021218C5AE82AF83D002D003D004D0058E828F83750C64750D04
:2009BD0000C007C006C005C004C003C002121718E5828583F0D002D003D004D005D006D0EB
:2009DD00072401FEE435F0FF7D007C008E828F838DF0ECC007C006C005C004C003C0021297
:2009FD00168AD002D003D004D005D006D0071ABAFF011BD007D006D005D0040208288C82BA
:200A1D008D838EF0EF02168AAF82AE25752D00752E00758200C007C0061202F0D006D0071C
:200A3D007C007D00C3EC9551ED64808552F063F08095F0507BEEB5250280047526122285AE
:200A5D002182852283C007C006C005C0041200DDD004D005D006D0078F2A854F2B85502C98
:200A7D00C007C006C005C0041202A6120227A853E554F93395E0FA888289838AF012168A3D
:200A9D00D004D005D006D007E555601C752D00752E00758200C007C006C005C0041202F0D7
:200ABD00D004D005D006D0070CBC00010D020A41AC53E554FD3395E0FE8C828D838EF00227
:200ADD00168A85825985835A85255B752D00752E007582001202F01202277B007C00C3EB72
:200AFD009559EC6480855AF063F08095F04003020BDBE525B55B0280047526122285218232
:200B1D00852283C004C0031200DDA982AA839000FFC002C0011200DDA8829000FFC0001234
:200B3D0000DDAD82D000D001D002D003D0049000FFC005C004C003C002C001C0001200DD65
:200B5D00AE82D000D001D002D003D004D0058E2C882A8D2B89828A83C004C0031202A612CA
:200B7D00022785210C85220D9000C812171885230C85240D1218C5750C0A750D0012171889
:200B9D00E5828583F02401FEE435F0FF7D007A008E828F838DF0EA12168AD003D004E55898
:200BBD006014752D00752E00758200C004C0031202F0D003D0040BBB00010C020AFBAC565A
:200BDD00E557FD3395E0FE8C828D838EF00216C4AF82852182852283C0071200DDAD82AE8B
:200BFD0083D0078F2A855C2B855D2C8D828E83C006C0051202A612022785210C85220D9015
:200C1D0000C812171885230C85240D1218C5750C0A750D00121718E5828583F02401FCE4A3
:200C3D0035F0FF7B007A008C828F838BF0EA12168AD005D006752A00752B00752C008D82AD
:200C5D008E830202A6AF8285602D85612E8F82C0071202F08521828522831200DDAD82AE6B
:200C7D0083752AFF752BFF752CFF8D828E83C006C0051202A6120227A962E563FA3395E062
:200C9D00FB89828A838BF012168AD005D006D0078F2A85602B85612C8D828E831202A612AE
:200CBD00022785210C85220D9000C812171885230C85240D1218C5750C0A750D0012171848
:200CDD00E5828583F02401FEE435F0FF7D007C008E828F838DF0EC02168AAF82AE257C00C7
:200CFD007D00C3EC9521ED9522400122EEB525028004752612228F2A85662B85672C8C82DC
:200D1D008D83C007C006C005C0041202A612022785210C85220D9000C812171885230C8563
:200D3D00240D1218C5750C64750D00121718E5828583F02402FAE435F0FB8A008B017A00BB
:200D5D007B00888289838AF0EB12168AD004D005D006D0070CBC00010D020CFF85256CE49B
:200D7D00F56AF56B7B007C00C3EB9521EC95224003020E0FE525B56C028004752612228B2C
:200D9D00018902790089828A8385210C85220DC004C003121718A982E56A29F582120E5F52
:200DBD00A882A983AAF0D003D004888289838AF0121ACFF52A740128FDE439FE8A078D8280
:200DDD008E838FF0121ACFF52B740228F8E439F9888289838AF0121ACFF52C8B828C83C017
:200DFD0004C0031202A6D003D0040BBB00010C020D8512022785210C85220D9000C8121725
:200E1D001885230C85240D1218C5750C0A750D00121718E5828583F02401FEE435F0FF7DEF
:200E3D00007C008E828F838DF0EC12168A056AE4B56A02056BAD6AAE6B74FB2E4003020DD9
:200E5D008122AF82BF55005019EF75F003A4F56D8F06EE75F003A4D394FFF4F56E756F0097
:200E7D00803ABFAA00501D8F06EE24ABFEFD75F003A4D394FFF4F56D756E00EE75F003A4D3
:200E9D00F56F8018EF2456FF756D0075F003A4F56EEF75F003A4D394FFF4F56F90006D7555
:200EBD00F04022AF82AE25E4F574F575AA74AB75C3EA940AEB648094804001227A007B0044
:200EDD008A008B01C3E89403E9648094804003020FF57800790088048905C3EC9521ED9581
:200EFD00225046EEB52502800475261222EA28F582EB39F5838F2A85702B85712CC007C059
:200F1D0006C003C002C001C0001202A6D000D001D002D003D006D0078804890574032CFC42
:200F3D00E43DFD8C008D0180ADC007C006C003C00212022785210C85220D9000C8121718E3
:200F5D0085230C85240D1218C5750C0A750D00121718E5828583F02401FCE435F0FD8C00BB
:200F7D008D017C007D00888289838CF0ED12168AD002D003D006D0077C007D008C008D0137
:200F9D00C3E89521E995225047EEB52502800475261222EA2CF582EB3DF583752A00752B13
:200FBD0000752C00C007C006C005C004C003C0021202A6D002D003D004D005D006D0078C97
:200FDD00008D01740328F8E439F98804890580AC0ABA00010B020EDD0574E4B574020575B4
:200FFD00020EC9852579E4F57AF57BAB7AAC7BC3EC64809481400122E4F57CF57DA97CAA28
:20101D007DC3E99403EA64809480400302116879007A0089008A06C3E89521EE95224003FE
:20103D000210D7E525B57902800475261222E57A29FDE57B3AFE8D828E83750CFF750D00DE
:20105D00C002C001121AEB120E5F85827685837785F078D001D002E57C29FCE57D3AFF8528
:20107D0076828577838578F0121ACFF52A74012576FBE43577FDAE788B828D838EF0121A50
:20109D00CFF52B74022576FBE43577FDAE788B828D838EF0121ACFF52C8C828F83C002C02C
:2010BD00011202A6D001D00289068A0774032EFEE43FFF8E018F0202103012022785210C81
:2010DD0085220D9000C812171885230C85240D1218C5750C0A750D00121718E5828583F0A0
:2010FD002401FEE435F0FF7D007C008E828F838DF0EC12168A7E007F008E048F05C3EC950B
:20111D0021ED9522503AE525B57902800475261222E57C2EF582E57D3FF583752A00752B78
:20113D0000752C00C007C0061202A6D006D0078E048F0574032CFCE43DFD8C068D0780B9BB
:20115D00057CE4B57C02057D02101A057AE4B57A02057B021008AF8253C98FEF42C953C80D
:20117D00FE43C98043C908850CCA850DCB75CC0075CD00439B8043A88043C80422902000CF
:20119D001215C685822574F42525500375250075950053B1BF43B2405380BF53B1FE43B2EF
:2011BD000153B1FD43B20253B1FB43B20453B1F743B20843800F53B1EF43B2104380105339
:2011DD00E8F043E80753B4FD43B30275F60043F68043E10143A84043E94043EA1053EBEFA2
:2011FD00439B021201EC750CF7750DC275827012117343A88043E84074015580FF7007752F
:20121D002132F522803274025580C313FF7007752164F5228022740455800303543FFF70F6
:20123D0007752196F522801074085580C423541FFF70057521C8F522E52524F45003021498
:20125D0056E525240B83F582E525241083F583E47386BDE90A486692A6CD171F50121212B3
:20127D00131313131313141414752FFF7530007582001203267412B52603021456752F00B5
:20129D007530007582FF1203267412B52603021456752F007530FF758200120326021456A5
:2012BD009000FF1200DDAE829000FFC0061200DDAD829000FFC0051200DDAC82D005D006D4
:2012DD008C308D2F8E821203260214567537FF7538FF75390A753A00753B32753C00753DBF
:2012FD00E8753E037582FF1205C10214569000FF1200DDAE829000FFC0061200DDAD829048
:20131D0000FFC0051200DDAC82D005D0068C408D3F75410475420075430A754400754532B4
:20133D007546008E821206A6021456754F0075500075510A755200755364755400755500BC
:20135D007582FF120A25021456852182852283750C05750D00121718AE82AF83EE2EFEEFC7
:20137D0033FF8E828F83755664755700755800120ADF021456755CFF755DFFE4F55EF55FA1
:20139D007582FF120BED0214567528E8752903900064120103858264858365756010756101
:2013BD0010756214756300758210120C620214569000FF1200DDAE829000FFC0061200DD58
:2013DD00AD829000FFC0051200DDAC82D005D0068C678D667568327569008E82120CF77439
:2013FD0012B526028053756600756700756832756900758200120CF7803F900014120D7963
:20141D0080379000FF1200DDAE829000FFC0061200DDAD829000FFC0051200DDAC82D00591
:20143D00D0068C718D707572327573008E82120EC080069000321210007412B5260280037E
:20145D00021255752656752700021255C0E0C007C006C005C004C0D075D000AEC3E4C45418
:20147D00F0CEC4CE6ECE54F0CE6EFFACC27D00EC4206ED42078E238F2453E87FD0D0D0045D
:20149D00D005D006D007D0E032C020C0E0C0F0C082C083C007C006C005C004C003C002C0BB
:2014BD0001C000C0D075D0007410B5EC0E052574F4252550037525001201EC75EC0090A1EC
:2014DD002075F007E41216C4D0D0D000D001D002D003D004D005D006D007D083D082D0F0F2
:2014FD00D0E0D02032C020C0E0C0F0C082C083C007C006C005C004C003C002C001C000C06C
:20151D00D075D000AE21AF227456B5260474018001E4FD600205277414B5271DED601A9073
:20153D002000C007C00612163085250C9020001215D6D006D00775260074015580FD700720
:20155D00752132F522803274025580C313FD7007752164F5228022740455800303543FFDB2
:20157D007007752196F522801074085580C423541FFD70057521C8F522EEB52106EFB522E2
:20159D000280031201EC53C87F43E840D0D0D000D001D002D003D004D005D006D007D08316
:0915BD00D082D0F0D0E0D0203241
:2015C600E493F58222E493FEA3E4938E82F58322AE82AF8353A87F75C7AA75C755439F0186
:2015E60043A88053A87F75C7AA75C75543A50143A88075AF218FA78EA6850CAE53A87F7558
:20160600C7AA75C75543A40143A88053A87F75C7AA75C75553A5FE43A88053A87F75C7AABD
:2016260075C755539FFE43A88022AE82AF8353A87F75C7AA75C755439F0143A88075AEFFD3
:2016460075AF2253A87F75C7AA75C75543A50143A8808FA78EA653A87F75C7AA75C755435B
:20166600A40143A88053A87F75C7AA75C75553A5FE43A88053A87F75C7AA75C755539FFE21
:0416860043A88022D3
:20168A00AC82AD83AEF0FF43C40743C408EC4D4E4F602375C58375C6FF741055C4C4540F14
:2016AA00FBBB01F553C4EF1CBCFF091DBDFF051EBEFF011F80D753C4F72285820C85830D06
:2016CA0085F00EF50F900005E4F5F01218E2AC82AD83AEF0C313FFEE13FEED13FDEC13FC47
:2016EA00EFC313FFEE13FEED13FDEC13FC0CBC00090DBD00050EBE00010F1CBCFF091DBDEF
:0E170A00FF051EBEFF011FEC4D4E4F70ED227D
:201718007A10E4FBFCE58225E0F582E58333F583EB33FBEC33FCEB950CF5F0EC950D4006DD
:09173800FCABF0438201DADD2272
:0B00CF00750801E4F509F50A750B80C7
:20174100AC08AD09AE0AAF0B8D00EEC313C813C8C313C813C8F9EF030354C049F9EF030306
:20176100543FFA7B00EC6200ED6201EE6202EF6203E828FDE933FEEA33FF7C00E86204E926
:201781006205EA6206EB6207EFC313F8E4F9FAFBE86204E96205EA6206EB62078C088D093E
:2017A1008E0A8F0B8C82747F5DF58322AE82AF837D007C008E088F098D0A74804CF50B227C
:2017C100121864BC00030219CBEF60FA30D502B2D1E583B4FF030219E1E582B4FF030219B0
:2017E100E1258340072482400B0219CB24831450030219E1F582EA8DF0A4A8F0EA8EF0A411
:2018010028F8E435F0F9EB8DF0A428E935F0F9E433CA8FF0A429F9EA35F0FAEBF88EF0A436
:2018210029F9EA35F0FAE433FBEC8DF0A429F9EA35F0FAE43BFBE88FF0A42AFAEB35F0FBDE
:20184100E433CCFD8EF0A42AFAEB35F0FBE43CFCED8FF0A42BFBEC35F0FC20E70312189231
:031861000219AABF
:20186400AA82AB83A2F73392D1F5826002D2F7ACF0E58124F9F8E6FD08E6FE0886F008E6E7
:0E188400A2F73392D5F5836002D2F7AFF022BF
:06009000E478FFF6D8FD44
:201892007804EC7011E58224F8500AF582E4C9CACBFCD8EF22EC7820058220E713D5820155
:1318B20022C3E933F9EA33FAEB33FBEC33FCD8EA15822263
:20006E007900E94400601B7A00901C19780175A000E493F2A308B8000205A0D9F4DAF27503
:02008E00A0FFD1
:1D18C500E582850CF0A4C582C0F0850DF0A4D0F025F0C583850CF0A42583F58322D9
:2018E200AAF0FBE582850CF0A4FCADF0E583850CF0A42DFDE435F0FEE582850DF0A42DFDB7
:20190200E5F03EFEE433FFEA850CF0A42EFEE5F03FFFE583850DF0A42EFEE5F03FFFE5821C
:20192200850EF0A42EFEE5F03FFFEB850CF0A42FFFEA850DF0A42FFFE583850EF0A42FFF06
:0E194200E582850FF0A42F8EF08D838C82221B
:20195000E50C450D60467A01E50C25E0F50CE50D334012F50DE582950CE583950D40030A44
:2019700080E6C3E50D13F50DE50C13F50CC3E582950CF5F0E583950D4005F58385F082C3F1
:0D199000E50D13F50DE50C13F50CDAE12261
:200096007800E84400600A790175A000E4F309D8FC7800E84400600C7900900001E4F0A368
:0400B600D8FCD9FA9F
:0D199D00AC83AB827A007900748E021B2AA5
:2019AA00B98003EA13B34010EA2401FAE43BFBE43CFC50047C800582BC000EBB000BBA0081
:2019CA0008E4F5F0F583F58222A2D1E582138CF092F78B838A8222E4F583F58275F080F441
:0F19EA00A2D11322E4F583F58275F0C0747F2239
:2019F90012186430D502B2D1BF0009BC00030219EE0219E1BC00030219CBE583B4FF0BE57A
:201A190082B4FF030219EE0219CBE582B4FF030219E1C395835007247F400B0219CB2480C3
:201A39001450030219E1F582C3ED9AEE9BEF9C40111582C3EA33F9EB33FAEC33FBE433FC4F
:201A59008005E4CCCBCAF9C08275F019C3E99DEA9EEB9FEC9400D5F002802D400EE99DF9CE
:201A7900EA9EFAEB9FFBEC9400FCC3B3E833F8E58233F582E58333F583C3E933F9EA33FA2E
:201A9900EB33FBEC33FC80C4B3E4F938FAE43582FBE43583FCD082500405827C80121892E0
:031AB9000219C24D
:0D00610075817D121B99E582600302005E2F
:0B1ABC00E4AC82FBFAF97486021B57B1
:081AC7007F86121B9FF58222AD
:1C1ACF0020F71430F6148883A88220F507E6A88375830022E280F7E49322E02226
:201AEB00C2D5E58330E70DD2D5E4C39582F582E49583F583E50D30E70BE4C3950CF50CE427
:161B0B00950DF50D12195030D50BE4C39582F582E49583F58322CA
:201B2100FCABF0AA83A982749EF582C2D1EC30E716D2D1E9F42401F9EAF43400FAEBF434C3
:0D1B410000FBECF43400FC1218920219AA0B
:131B4E00FCABF0AA83A982749EC2D1F5821218920219AAF8
:201B6100C2D5E58330E70DD2D5E4C39582F582E49583F583E50D30E70DB2D5E4C3950CF517
:181B81000CE4950DF50D12171830D50BE4C39582F582E49583F583229C
:041B9900758200222F
:201B9D007F9E121C0730D1030219CBC3EF9582500974FFF5F0F583F582227900121BC4896E
:071BBD00828A838BF0EC2209
:201BC4006040F82582500274FFF582E824F8501ECCCBCAF9E4CC24F85014CBCAF9E4CB2429
:201BE400F8500BCAF9E4CA24F8500379002224086010F8C3EC13FCEB13FBEA13FAE913F9DC
:031C0400D8F122F2
:121C0700AA82AB83A2F73392D1F5826002D2F7ACF022E2
:00000001FF
